{
  "abi": [
    {
      "type": "constructor",
      "inputs": [],
      "stateMutability": "nonpayable"
    },
    {
      "type": "function",
      "name": "easRegistry",
      "inputs": [],
      "outputs": [
        {
          "name": "",
          "type": "address",
          "internalType": "contract IEAS"
        }
      ],
      "stateMutability": "view"
    },
    {
      "type": "function",
      "name": "getAttestation",
      "inputs": [
        {
          "name": "uid",
          "type": "bytes32",
          "internalType": "bytes32"
        }
      ],
      "outputs": [
        {
          "name": "attestation",
          "type": "tuple",
          "internalType": "struct Attestation",
          "components": [
            {
              "name": "uid",
              "type": "bytes32",
              "internalType": "bytes32"
            },
            {
              "name": "schema",
              "type": "bytes32",
              "internalType": "bytes32"
            },
            {
              "name": "time",
              "type": "uint64",
              "internalType": "uint64"
            },
            {
              "name": "expirationTime",
              "type": "uint64",
              "internalType": "uint64"
            },
            {
              "name": "revocationTime",
              "type": "uint64",
              "internalType": "uint64"
            },
            {
              "name": "refUID",
              "type": "bytes32",
              "internalType": "bytes32"
            },
            {
              "name": "recipient",
              "type": "address",
              "internalType": "address"
            },
            {
              "name": "attester",
              "type": "address",
              "internalType": "address"
            },
            {
              "name": "revocable",
              "type": "bool",
              "internalType": "bool"
            },
            {
              "name": "data",
              "type": "bytes",
              "internalType": "bytes"
            }
          ]
        }
      ],
      "stateMutability": "view"
    },
    {
      "type": "function",
      "name": "initialize",
      "inputs": [],
      "outputs": [],
      "stateMutability": "nonpayable"
    },
    {
      "type": "function",
      "name": "owner",
      "inputs": [],
      "outputs": [
        {
          "name": "",
          "type": "address",
          "internalType": "address"
        }
      ],
      "stateMutability": "view"
    },
    {
      "type": "function",
      "name": "renounceOwnership",
      "inputs": [],
      "outputs": [],
      "stateMutability": "nonpayable"
    },
    {
      "type": "function",
      "name": "router",
      "inputs": [],
      "outputs": [
        {
          "name": "",
          "type": "address",
          "internalType": "contract IRouter"
        }
      ],
      "stateMutability": "view"
    },
    {
      "type": "function",
      "name": "transferOwnership",
      "inputs": [
        {
          "name": "newOwner",
          "type": "address",
          "internalType": "address"
        }
      ],
      "outputs": [],
      "stateMutability": "nonpayable"
    },
    {
      "type": "function",
      "name": "updateEASRegistryAddress",
      "inputs": [
        {
          "name": "_easRegistryAddress",
          "type": "address",
          "internalType": "address"
        }
      ],
      "outputs": [],
      "stateMutability": "nonpayable"
    },
    {
      "type": "function",
      "name": "updateRouter",
      "inputs": [
        {
          "name": "_router",
          "type": "address",
          "internalType": "address"
        }
      ],
      "outputs": [],
      "stateMutability": "nonpayable"
    },
    {
      "type": "event",
      "name": "EASRegistryAddressUpdated",
      "inputs": [
        {
          "name": "easRegistryAddress",
          "type": "address",
          "indexed": false,
          "internalType": "address"
        }
      ],
      "anonymous": false
    },
    {
      "type": "event",
      "name": "Initialized",
      "inputs": [
        {
          "name": "version",
          "type": "uint8",
          "indexed": false,
          "internalType": "uint8"
        }
      ],
      "anonymous": false
    },
    {
      "type": "event",
      "name": "OwnershipTransferred",
      "inputs": [
        {
          "name": "previousOwner",
          "type": "address",
          "indexed": true,
          "internalType": "address"
        },
        {
          "name": "newOwner",
          "type": "address",
          "indexed": true,
          "internalType": "address"
        }
      ],
      "anonymous": false
    },
    {
      "type": "event",
      "name": "RouterUpdated",
      "inputs": [
        {
          "name": "routerAddress",
          "type": "address",
          "indexed": false,
          "internalType": "address"
        }
      ],
      "anonymous": false
    },
    {
      "type": "error",
      "name": "EASAddressInvalid",
      "inputs": []
    },
    {
      "type": "error",
      "name": "RouterInvalid",
      "inputs": []
    }
  ],
  "bytecode": {
    "object": "0x608060405234801561001057600080fd5b5061001961001e565b6100dd565b600054610100900460ff161561008a5760405162461bcd60e51b815260206004820152602760248201527f496e697469616c697a61626c653a20636f6e747261637420697320696e697469604482015266616c697a696e6760c81b606482015260840160405180910390fd5b60005460ff908116146100db576000805460ff191660ff9081179091556040519081527f7f26b83ff96e1f2b6a682f133852f6798a09c465da95921460cefb38474024989060200160405180910390a15b565b610ff4806100ec6000396000f3fe608060405234801561001057600080fd5b50600436106100935760003560e01c8063a3112a6411610066578063a3112a64146100eb578063c851cc321461010b578063e4e293351461011e578063f2fde38b14610131578063f887ea401461014457600080fd5b80635d0f5cf314610098578063715018a6146100c85780638129fc1c146100d25780638da5cb5b146100da575b600080fd5b6066546100ab906001600160a01b031681565b6040516001600160a01b0390911681526020015b60405180910390f35b6100d0610157565b005b6100d061016b565b6033546001600160a01b03166100ab565b6100fe6100f93660046108af565b610282565b6040516100bf9190610918565b6100d0610119366004610a01565b6103fd565b6100d061012c366004610a01565b61047a565b6100d061013f366004610a01565b6104f7565b6065546100ab906001600160a01b031681565b61015f61056d565b61016960006105c7565b565b600054610100900460ff161580801561018b5750600054600160ff909116105b806101a55750303b1580156101a5575060005460ff166001145b61020d5760405162461bcd60e51b815260206004820152602e60248201527f496e697469616c697a61626c653a20636f6e747261637420697320616c72656160448201526d191e481a5b9a5d1a585b1a5e995960921b60648201526084015b60405180910390fd5b6000805460ff191660011790558015610230576000805461ff0019166101001790555b610238610619565b801561027f576000805461ff0019169055604051600181527f7f26b83ff96e1f2b6a682f133852f6798a09c465da95921460cefb3847402498906020015b60405180910390a15b50565b61028a610859565b6066546040516328c44a9960e21b8152600481018490526001600160a01b039091169063a3112a6490602401600060405180830381865afa1580156102d3573d6000803e3d6000fd5b505050506040513d6000823e601f3d908101601f191682016040526102fb9190810190610b6e565b60208101519091506103f8576065546040805163bfa6658560e01b815290516000926001600160a01b03169163bfa665859160048083019260209291908290030181865afa158015610351573d6000803e3d6000fd5b505050506040513d601f19601f820116820180604052508101906103759190610c64565b6040516328c44a9960e21b8152600481018590529091506000906001600160a01b0383169063a3112a6490602401600060405180830381865afa1580156103c0573d6000803e3d6000fd5b505050506040513d6000823e601f3d908101601f191682016040526103e89190810190610c93565b90506103f381610648565b925050505b919050565b61040561056d565b6001600160a01b03811661042c576040516324a2034760e11b815260040160405180910390fd5b606580546001600160a01b0319166001600160a01b0383169081179091556040519081527f7aed1d3e8155a07ccf395e44ea3109a0e2d6c9b29bbbe9f142d9790596f4dc8090602001610276565b61048261056d565b6001600160a01b0381166104a957604051636cfbf67f60e01b815260040160405180910390fd5b606680546001600160a01b0319166001600160a01b0383169081179091556040519081527fd8f5cfe0b9a5d141f53fd83c6f5e5df6b43b24f2219930a7166d307b65e42da190602001610276565b6104ff61056d565b6001600160a01b0381166105645760405162461bcd60e51b815260206004820152602660248201527f4f776e61626c653a206e6577206f776e657220697320746865207a65726f206160448201526564647265737360d01b6064820152608401610204565b61027f816105c7565b6033546001600160a01b031633146101695760405162461bcd60e51b815260206004820181905260248201527f4f776e61626c653a2063616c6c6572206973206e6f7420746865206f776e65726044820152606401610204565b603380546001600160a01b038381166001600160a01b0319831681179093556040519116919082907f8be0079c531659141344cd1fd0a4f28419497f9722a3daafe3b4186f6b6457e090600090a35050565b600054610100900460ff166106405760405162461bcd60e51b815260040161020490610da4565b610169610829565b610650610859565b60008261014001515160200361067c578261014001518060200190518101906106799190610c64565b90505b8261014001515160140361069f5782610140015161069990610def565b60601c90505b60405180610140016040528084600001518152602001846020015181526020018460a001516001600160401b031681526020018460c001516001600160401b031681526020018460e001516001600160401b031681526020016000801b8152602001826001600160a01b0316815260200184606001516001600160a01b03168152602001606560009054906101000a90046001600160a01b03166001600160a01b031663b7dac9766040518163ffffffff1660e01b8152600401602060405180830381865afa158015610776573d6000803e3d6000fd5b505050506040513d601f19601f8201168201806040525081019061079a9190610c64565b608086015160405163181f78e960e31b81526001600160a01b03918216600482015291169063c0fbc74890602401600060405180830381865afa1580156107e5573d6000803e3d6000fd5b505050506040513d6000823e601f3d908101601f1916820160405261080d9190810190610eb3565b6060015115158152602001846101600151815250915050919050565b600054610100900460ff166108505760405162461bcd60e51b815260040161020490610da4565b610169336105c7565b604080516101408101825260008082526020820181905291810182905260608082018390526080820183905260a0820183905260c0820183905260e0820183905261010082019290925261012081019190915290565b6000602082840312156108c157600080fd5b5035919050565b60005b838110156108e35781810151838201526020016108cb565b50506000910152565b600081518084526109048160208601602086016108c8565b601f01601f19169290920160200192915050565b6020815281516020820152602082015160408201526000604083015161094960608401826001600160401b03169052565b5060608301516001600160401b03811660808401525060808301516001600160401b03811660a08401525060a083015160c083015260c083015161099860e08401826001600160a01b03169052565b5060e08301516101006109b5818501836001600160a01b03169052565b84015190506101206109ca8482018315159052565b8401516101408481015290506109e46101608401826108ec565b949350505050565b6001600160a01b038116811461027f57600080fd5b600060208284031215610a1357600080fd5b8135610a1e816109ec565b9392505050565b634e487b7160e01b600052604160045260246000fd5b60405161014081016001600160401b0381118282101715610a5e57610a5e610a25565b60405290565b60405161018081016001600160401b0381118282101715610a5e57610a5e610a25565b60405160e081016001600160401b0381118282101715610a5e57610a5e610a25565b604051601f8201601f191681016001600160401b0381118282101715610ad157610ad1610a25565b604052919050565b80516001600160401b03811681146103f857600080fd5b80516103f8816109ec565b805180151581146103f857600080fd5b600082601f830112610b1c57600080fd5b81516001600160401b03811115610b3557610b35610a25565b610b48601f8201601f1916602001610aa9565b818152846020838601011115610b5d57600080fd5b6109e48260208301602087016108c8565b600060208284031215610b8057600080fd5b81516001600160401b0380821115610b9757600080fd5b908301906101408286031215610bac57600080fd5b610bb4610a3b565b8251815260208301516020820152610bce60408401610ad9565b6040820152610bdf60608401610ad9565b6060820152610bf060808401610ad9565b608082015260a083015160a0820152610c0b60c08401610af0565b60c0820152610c1c60e08401610af0565b60e0820152610100610c2f818501610afb565b908201526101208381015183811115610c4757600080fd5b610c5388828701610b0b565b918301919091525095945050505050565b600060208284031215610c7657600080fd5b8151610a1e816109ec565b805161ffff811681146103f857600080fd5b600060208284031215610ca557600080fd5b81516001600160401b0380821115610cbc57600080fd5b908301906101808286031215610cd157600080fd5b610cd9610a64565b825181526020830151602082015260408301516040820152610cfd60608401610af0565b6060820152610d0e60808401610af0565b6080820152610d1f60a08401610ad9565b60a0820152610d3060c08401610ad9565b60c0820152610d4160e08401610ad9565b60e0820152610100610d54818501610c81565b90820152610120610d66848201610afb565b908201526101408381015183811115610d7e57600080fd5b610d8a88828701610b0b565b8284015250506101608084015183811115610c4757600080fd5b6020808252602b908201527f496e697469616c697a61626c653a20636f6e7472616374206973206e6f74206960408201526a6e697469616c697a696e6760a81b606082015260800190565b805160208201516bffffffffffffffffffffffff198082169291906014831015610e235780818460140360031b1b83161693505b505050919050565b600082601f830112610e3c57600080fd5b815160206001600160401b03821115610e5757610e57610a25565b8160051b610e66828201610aa9565b9283528481018201928281019087851115610e8057600080fd5b83870192505b84831015610ea8578251610e99816109ec565b82529183019190830190610e86565b979650505050505050565b600060208284031215610ec557600080fd5b81516001600160401b0380821115610edc57600080fd5b9083019060e08286031215610ef057600080fd5b610ef8610a87565b610f0183610af0565b8152610f0f60208401610af0565b6020820152604083015182811115610f2657600080fd5b610f3287828601610e2b565b604083015250610f4460608401610afb565b6060820152608083015182811115610f5b57600080fd5b610f6787828601610b0b565b60808301525060a083015182811115610f7f57600080fd5b610f8b87828601610b0b565b60a08301525060c083015182811115610fa357600080fd5b610faf87828601610b0b565b60c0830152509594505050505056fea2646970667358221220a814d22ace878c61f7a3bda771762fa7fc8165eb1d18a26e8d8d4cb17672769764736f6c63430008150033",
    "linkReferences": {}
  },
  "methodIdentifiers": {
    "easRegistry()": "5d0f5cf3",
    "getAttestation(bytes32)": "a3112a64",
    "initialize()": "8129fc1c",
    "owner()": "8da5cb5b",
    "renounceOwnership()": "715018a6",
    "router()": "f887ea40",
    "transferOwnership(address)": "f2fde38b",
    "updateEASRegistryAddress(address)": "e4e29335",
    "updateRouter(address)": "c851cc32"
  },
  "id": 45
}