{
  "abi": [
    {
      "type": "function",
      "name": "getAttestationRegistry",
      "inputs": [],
      "outputs": [
        {
          "name": "",
          "type": "address",
          "internalType": "address"
        }
      ],
      "stateMutability": "view"
    },
    {
      "type": "function",
      "name": "getModuleRegistry",
      "inputs": [],
      "outputs": [
        {
          "name": "",
          "type": "address",
          "internalType": "address"
        }
      ],
      "stateMutability": "view"
    },
    {
      "type": "function",
      "name": "getPortalRegistry",
      "inputs": [],
      "outputs": [
        {
          "name": "",
          "type": "address",
          "internalType": "address"
        }
      ],
      "stateMutability": "view"
    },
    {
      "type": "function",
      "name": "getSchemaRegistry",
      "inputs": [],
      "outputs": [
        {
          "name": "",
          "type": "address",
          "internalType": "address"
        }
      ],
      "stateMutability": "view"
    },
    {
      "type": "function",
      "name": "initialize",
      "inputs": [],
      "outputs": [],
      "stateMutability": "nonpayable"
    },
    {
      "type": "function",
      "name": "owner",
      "inputs": [],
      "outputs": [
        {
          "name": "",
          "type": "address",
          "internalType": "address"
        }
      ],
      "stateMutability": "view"
    },
    {
      "type": "function",
      "name": "renounceOwnership",
      "inputs": [],
      "outputs": [],
      "stateMutability": "nonpayable"
    },
    {
      "type": "function",
      "name": "transferOwnership",
      "inputs": [
        {
          "name": "newOwner",
          "type": "address",
          "internalType": "address"
        }
      ],
      "outputs": [],
      "stateMutability": "nonpayable"
    },
    {
      "type": "function",
      "name": "updateAttestationRegistry",
      "inputs": [
        {
          "name": "_attestationRegistry",
          "type": "address",
          "internalType": "address"
        }
      ],
      "outputs": [],
      "stateMutability": "nonpayable"
    },
    {
      "type": "function",
      "name": "updateModuleRegistry",
      "inputs": [
        {
          "name": "_moduleRegistry",
          "type": "address",
          "internalType": "address"
        }
      ],
      "outputs": [],
      "stateMutability": "nonpayable"
    },
    {
      "type": "function",
      "name": "updatePortalRegistry",
      "inputs": [
        {
          "name": "_portalRegistry",
          "type": "address",
          "internalType": "address"
        }
      ],
      "outputs": [],
      "stateMutability": "nonpayable"
    },
    {
      "type": "function",
      "name": "updateSchemaRegistry",
      "inputs": [
        {
          "name": "_schemaRegistry",
          "type": "address",
          "internalType": "address"
        }
      ],
      "outputs": [],
      "stateMutability": "nonpayable"
    },
    {
      "type": "event",
      "name": "AttestationRegistryUpdated",
      "inputs": [
        {
          "name": "registryAddress",
          "type": "address",
          "indexed": true,
          "internalType": "address"
        }
      ],
      "anonymous": false
    },
    {
      "type": "event",
      "name": "Initialized",
      "inputs": [
        {
          "name": "version",
          "type": "uint8",
          "indexed": false,
          "internalType": "uint8"
        }
      ],
      "anonymous": false
    },
    {
      "type": "event",
      "name": "ModuleRegistryUpdated",
      "inputs": [
        {
          "name": "registryAddress",
          "type": "address",
          "indexed": true,
          "internalType": "address"
        }
      ],
      "anonymous": false
    },
    {
      "type": "event",
      "name": "OwnershipTransferred",
      "inputs": [
        {
          "name": "previousOwner",
          "type": "address",
          "indexed": true,
          "internalType": "address"
        },
        {
          "name": "newOwner",
          "type": "address",
          "indexed": true,
          "internalType": "address"
        }
      ],
      "anonymous": false
    },
    {
      "type": "event",
      "name": "PortalRegistryUpdated",
      "inputs": [
        {
          "name": "registryAddress",
          "type": "address",
          "indexed": true,
          "internalType": "address"
        }
      ],
      "anonymous": false
    },
    {
      "type": "event",
      "name": "SchemaRegistryUpdated",
      "inputs": [
        {
          "name": "registryAddress",
          "type": "address",
          "indexed": true,
          "internalType": "address"
        }
      ],
      "anonymous": false
    }
  ],
  "bytecode": {
    "object": "0x608060405234801561001057600080fd5b50610636806100206000396000f3fe608060405234801561001057600080fd5b50600436106100b45760003560e01c80638da5cb5b116100715780638da5cb5b14610117578063b7dac97614610140578063bfa6658514610151578063edec795214610162578063f10b5cc814610173578063f2fde38b1461018457600080fd5b806316675734146100b957806345a8d0f1146100ce578063499e4112146100e15780636cb74562146100f4578063715018a6146101075780638129fc1c1461010f575b600080fd5b6100cc6100c7366004610585565b610197565b005b6100cc6100dc366004610585565b6101e9565b6100cc6100ef366004610585565b61023b565b6100cc610102366004610585565b61028d565b6100cc6102df565b6100cc6102f3565b6033546001600160a01b03165b6040516001600160a01b03909116815260200160405180910390f35b6067546001600160a01b0316610124565b6065546001600160a01b0316610124565b6066546001600160a01b0316610124565b6068546001600160a01b0316610124565b6100cc610192366004610585565b610409565b61019f61047f565b606680546001600160a01b0319166001600160a01b0383169081179091556040517f0115b36746cbcd5759972b4c5f80450d3be1be0f624693378417d61cad103b3a90600090a250565b6101f161047f565b606580546001600160a01b0319166001600160a01b0383169081179091556040517fb823bfcaa11e0b58fbe97ffae2b42a865c1202c49bc6f75ba47903473cf79e2990600090a250565b61024361047f565b606880546001600160a01b0319166001600160a01b0383169081179091556040517f2f627562d11b69216f18d7a2e496468641735ab36d043fb3c3e3b958044d459690600090a250565b61029561047f565b606780546001600160a01b0319166001600160a01b0383169081179091556040517f37de513e8c3a97267dea780aab6b3413bc6aee6aff9e4dd4f5d8bffbab7a043390600090a250565b6102e761047f565b6102f160006104d9565b565b600054610100900460ff16158080156103135750600054600160ff909116105b8061032d5750303b15801561032d575060005460ff166001145b6103955760405162461bcd60e51b815260206004820152602e60248201527f496e697469616c697a61626c653a20636f6e747261637420697320616c72656160448201526d191e481a5b9a5d1a585b1a5e995960921b60648201526084015b60405180910390fd5b6000805460ff1916600117905580156103b8576000805461ff0019166101001790555b6103c061052b565b8015610406576000805461ff0019169055604051600181527f7f26b83ff96e1f2b6a682f133852f6798a09c465da95921460cefb38474024989060200160405180910390a15b50565b61041161047f565b6001600160a01b0381166104765760405162461bcd60e51b815260206004820152602660248201527f4f776e61626c653a206e6577206f776e657220697320746865207a65726f206160448201526564647265737360d01b606482015260840161038c565b610406816104d9565b6033546001600160a01b031633146102f15760405162461bcd60e51b815260206004820181905260248201527f4f776e61626c653a2063616c6c6572206973206e6f7420746865206f776e6572604482015260640161038c565b603380546001600160a01b038381166001600160a01b0319831681179093556040519116919082907f8be0079c531659141344cd1fd0a4f28419497f9722a3daafe3b4186f6b6457e090600090a35050565b600054610100900460ff166105525760405162461bcd60e51b815260040161038c906105b5565b6102f1600054610100900460ff1661057c5760405162461bcd60e51b815260040161038c906105b5565b6102f1336104d9565b60006020828403121561059757600080fd5b81356001600160a01b03811681146105ae57600080fd5b9392505050565b6020808252602b908201527f496e697469616c697a61626c653a20636f6e7472616374206973206e6f74206960408201526a6e697469616c697a696e6760a81b60608201526080019056fea26469706673582212205bd437a36a9690a7d48d00d59fdfee6c97b4f2937f7fbbf32b1e48b620dc0e1364736f6c63430008150033",
    "linkReferences": {}
  },
  "methodIdentifiers": {
    "getAttestationRegistry()": "bfa66585",
    "getModuleRegistry()": "edec7952",
    "getPortalRegistry()": "b7dac976",
    "getSchemaRegistry()": "f10b5cc8",
    "initialize()": "8129fc1c",
    "owner()": "8da5cb5b",
    "renounceOwnership()": "715018a6",
    "transferOwnership(address)": "f2fde38b",
    "updateAttestationRegistry(address)": "45a8d0f1",
    "updateModuleRegistry(address)": "16675734",
    "updatePortalRegistry(address)": "6cb74562",
    "updateSchemaRegistry(address)": "499e4112"
  },
  "id": 51
}