{
  "abi": [
    {
      "type": "constructor",
      "inputs": [],
      "stateMutability": "nonpayable"
    },
    {
      "type": "function",
      "name": "bulkRunModules",
      "inputs": [
        {
          "name": "modulesAddresses",
          "type": "address[]",
          "internalType": "address[]"
        },
        {
          "name": "attestationsPayloads",
          "type": "tuple[]",
          "internalType": "struct AttestationPayload[]",
          "components": [
            {
              "name": "schemaId",
              "type": "bytes32",
              "internalType": "bytes32"
            },
            {
              "name": "expirationDate",
              "type": "uint64",
              "internalType": "uint64"
            },
            {
              "name": "subject",
              "type": "bytes",
              "internalType": "bytes"
            },
            {
              "name": "attestationData",
              "type": "bytes",
              "internalType": "bytes"
            }
          ]
        },
        {
          "name": "validationPayloads",
          "type": "bytes[][]",
          "internalType": "bytes[][]"
        }
      ],
      "outputs": [],
      "stateMutability": "nonpayable"
    },
    {
      "type": "function",
      "name": "bulkRunModulesV2",
      "inputs": [
        {
          "name": "modulesAddresses",
          "type": "address[]",
          "internalType": "address[]"
        },
        {
          "name": "attestationPayloads",
          "type": "tuple[]",
          "internalType": "struct AttestationPayload[]",
          "components": [
            {
              "name": "schemaId",
              "type": "bytes32",
              "internalType": "bytes32"
            },
            {
              "name": "expirationDate",
              "type": "uint64",
              "internalType": "uint64"
            },
            {
              "name": "subject",
              "type": "bytes",
              "internalType": "bytes"
            },
            {
              "name": "attestationData",
              "type": "bytes",
              "internalType": "bytes"
            }
          ]
        },
        {
          "name": "validationPayloads",
          "type": "bytes[][]",
          "internalType": "bytes[][]"
        },
        {
          "name": "initialCaller",
          "type": "address",
          "internalType": "address"
        },
        {
          "name": "attester",
          "type": "address",
          "internalType": "address"
        },
        {
          "name": "operationType",
          "type": "uint8",
          "internalType": "enum OperationType"
        }
      ],
      "outputs": [],
      "stateMutability": "nonpayable"
    },
    {
      "type": "function",
      "name": "getModulesNumber",
      "inputs": [],
      "outputs": [
        {
          "name": "",
          "type": "uint256",
          "internalType": "uint256"
        }
      ],
      "stateMutability": "view"
    },
    {
      "type": "function",
      "name": "initialize",
      "inputs": [],
      "outputs": [],
      "stateMutability": "nonpayable"
    },
    {
      "type": "function",
      "name": "isContractAddress",
      "inputs": [
        {
          "name": "contractAddress",
          "type": "address",
          "internalType": "address"
        }
      ],
      "outputs": [
        {
          "name": "",
          "type": "bool",
          "internalType": "bool"
        }
      ],
      "stateMutability": "view"
    },
    {
      "type": "function",
      "name": "isRegistered",
      "inputs": [
        {
          "name": "moduleAddress",
          "type": "address",
          "internalType": "address"
        }
      ],
      "outputs": [
        {
          "name": "",
          "type": "bool",
          "internalType": "bool"
        }
      ],
      "stateMutability": "view"
    },
    {
      "type": "function",
      "name": "moduleAddresses",
      "inputs": [
        {
          "name": "",
          "type": "uint256",
          "internalType": "uint256"
        }
      ],
      "outputs": [
        {
          "name": "",
          "type": "address",
          "internalType": "address"
        }
      ],
      "stateMutability": "view"
    },
    {
      "type": "function",
      "name": "modules",
      "inputs": [
        {
          "name": "id",
          "type": "address",
          "internalType": "address"
        }
      ],
      "outputs": [
        {
          "name": "moduleAddress",
          "type": "address",
          "internalType": "address"
        },
        {
          "name": "name",
          "type": "string",
          "internalType": "string"
        },
        {
          "name": "description",
          "type": "string",
          "internalType": "string"
        }
      ],
      "stateMutability": "view"
    },
    {
      "type": "function",
      "name": "owner",
      "inputs": [],
      "outputs": [
        {
          "name": "",
          "type": "address",
          "internalType": "address"
        }
      ],
      "stateMutability": "view"
    },
    {
      "type": "function",
      "name": "register",
      "inputs": [
        {
          "name": "name",
          "type": "string",
          "internalType": "string"
        },
        {
          "name": "description",
          "type": "string",
          "internalType": "string"
        },
        {
          "name": "moduleAddress",
          "type": "address",
          "internalType": "address"
        }
      ],
      "outputs": [],
      "stateMutability": "nonpayable"
    },
    {
      "type": "function",
      "name": "renounceOwnership",
      "inputs": [],
      "outputs": [],
      "stateMutability": "nonpayable"
    },
    {
      "type": "function",
      "name": "router",
      "inputs": [],
      "outputs": [
        {
          "name": "",
          "type": "address",
          "internalType": "contract IRouter"
        }
      ],
      "stateMutability": "view"
    },
    {
      "type": "function",
      "name": "runModules",
      "inputs": [
        {
          "name": "modulesAddresses",
          "type": "address[]",
          "internalType": "address[]"
        },
        {
          "name": "attestationPayload",
          "type": "tuple",
          "internalType": "struct AttestationPayload",
          "components": [
            {
              "name": "schemaId",
              "type": "bytes32",
              "internalType": "bytes32"
            },
            {
              "name": "expirationDate",
              "type": "uint64",
              "internalType": "uint64"
            },
            {
              "name": "subject",
              "type": "bytes",
              "internalType": "bytes"
            },
            {
              "name": "attestationData",
              "type": "bytes",
              "internalType": "bytes"
            }
          ]
        },
        {
          "name": "validationPayloads",
          "type": "bytes[]",
          "internalType": "bytes[]"
        },
        {
          "name": "value",
          "type": "uint256",
          "internalType": "uint256"
        }
      ],
      "outputs": [],
      "stateMutability": "nonpayable"
    },
    {
      "type": "function",
      "name": "runModulesV2",
      "inputs": [
        {
          "name": "modulesAddresses",
          "type": "address[]",
          "internalType": "address[]"
        },
        {
          "name": "attestationPayload",
          "type": "tuple",
          "internalType": "struct AttestationPayload",
          "components": [
            {
              "name": "schemaId",
              "type": "bytes32",
              "internalType": "bytes32"
            },
            {
              "name": "expirationDate",
              "type": "uint64",
              "internalType": "uint64"
            },
            {
              "name": "subject",
              "type": "bytes",
              "internalType": "bytes"
            },
            {
              "name": "attestationData",
              "type": "bytes",
              "internalType": "bytes"
            }
          ]
        },
        {
          "name": "validationPayloads",
          "type": "bytes[]",
          "internalType": "bytes[]"
        },
        {
          "name": "value",
          "type": "uint256",
          "internalType": "uint256"
        },
        {
          "name": "initialCaller",
          "type": "address",
          "internalType": "address"
        },
        {
          "name": "attester",
          "type": "address",
          "internalType": "address"
        },
        {
          "name": "operationType",
          "type": "uint8",
          "internalType": "enum OperationType"
        }
      ],
      "outputs": [],
      "stateMutability": "nonpayable"
    },
    {
      "type": "function",
      "name": "transferOwnership",
      "inputs": [
        {
          "name": "newOwner",
          "type": "address",
          "internalType": "address"
        }
      ],
      "outputs": [],
      "stateMutability": "nonpayable"
    },
    {
      "type": "function",
      "name": "updateRouter",
      "inputs": [
        {
          "name": "_router",
          "type": "address",
          "internalType": "address"
        }
      ],
      "outputs": [],
      "stateMutability": "nonpayable"
    },
    {
      "type": "event",
      "name": "Initialized",
      "inputs": [
        {
          "name": "version",
          "type": "uint8",
          "indexed": false,
          "internalType": "uint8"
        }
      ],
      "anonymous": false
    },
    {
      "type": "event",
      "name": "ModuleRegistered",
      "inputs": [
        {
          "name": "name",
          "type": "string",
          "indexed": false,
          "internalType": "string"
        },
        {
          "name": "description",
          "type": "string",
          "indexed": false,
          "internalType": "string"
        },
        {
          "name": "moduleAddress",
          "type": "address",
          "indexed": false,
          "internalType": "address"
        }
      ],
      "anonymous": false
    },
    {
      "type": "event",
      "name": "OwnershipTransferred",
      "inputs": [
        {
          "name": "previousOwner",
          "type": "address",
          "indexed": true,
          "internalType": "address"
        },
        {
          "name": "newOwner",
          "type": "address",
          "indexed": true,
          "internalType": "address"
        }
      ],
      "anonymous": false
    },
    {
      "type": "event",
      "name": "RouterUpdated",
      "inputs": [
        {
          "name": "routerAddress",
          "type": "address",
          "indexed": false,
          "internalType": "address"
        }
      ],
      "anonymous": false
    },
    {
      "type": "error",
      "name": "AttestationPayloadMissing",
      "inputs": []
    },
    {
      "type": "error",
      "name": "ModuleAddressInvalid",
      "inputs": []
    },
    {
      "type": "error",
      "name": "ModuleAlreadyExists",
      "inputs": []
    },
    {
      "type": "error",
      "name": "ModuleInvalid",
      "inputs": []
    },
    {
      "type": "error",
      "name": "ModuleNameMissing",
      "inputs": []
    },
    {
      "type": "error",
      "name": "ModuleNotRegistered",
      "inputs": []
    },
    {
      "type": "error",
      "name": "ModuleValidationPayloadMismatch",
      "inputs": []
    },
    {
      "type": "error",
      "name": "OnlyAllowlisted",
      "inputs": []
    },
    {
      "type": "error",
      "name": "RouterInvalid",
      "inputs": []
    }
  ],
  "bytecode": {
    "object": "0x608060405234801561001057600080fd5b5061001961001e565b6100dd565b600054610100900460ff161561008a5760405162461bcd60e51b815260206004820152602760248201527f496e697469616c697a61626c653a20636f6e747261637420697320696e697469604482015266616c697a696e6760c81b606482015260840160405180910390fd5b60005460ff908116146100db576000805460ff191660ff9081179091556040519081527f7f26b83ff96e1f2b6a682f133852f6798a09c465da95921460cefb38474024989060200160405180910390a15b565b611900806100ec6000396000f3fe608060405234801561001057600080fd5b50600436106101005760003560e01c8063a8ee49fe11610097578063e8e253ca11610066578063e8e253ca14610219578063f030bba61461022c578063f2fde38b1461023d578063f887ea401461025057600080fd5b8063a8ee49fe146101be578063c3c5a547146101e0578063c851cc32146101f3578063e2baec4a1461020657600080fd5b80638129fc1c116100d35780638129fc1c146101655780638da5cb5b1461016d5780638ed9606a1461017e578063a8015e43146101ab57600080fd5b80635664d69c146101055780636155fdf71461011a578063715018a61461014a57806379638ef114610152575b600080fd5b610118610113366004610eee565b610263565b005b61012d610128366004610f65565b610535565b6040516001600160a01b0390911681526020015b60405180910390f35b61011861055f565b610118610160366004611254565b610573565b6101186105e4565b6033546001600160a01b031661012d565b61019b61018c366004611310565b6001600160a01b03163b151590565b6040519015158152602001610141565b6101186101b936600461132d565b6106fb565b6101d16101cc366004611310565b61083e565b6040516101419392919061143a565b61019b6101ee366004611310565b61097b565b610118610201366004611310565b6109ae565b61011861021436600461147a565b610a2b565b610118610227366004611501565b610a96565b606754604051908152602001610141565b61011861024b366004611310565b610bc3565b60655461012d906001600160a01b031681565b60655460408051635bed64bb60e11b8152905133926001600160a01b03169163b7dac9769160048083019260209291908290030181865afa1580156102ac573d6000803e3d6000fd5b505050506040513d601f19601f820116820180604052508101906102d09190611590565b6040516305a3b80960e01b81526001600160a01b03838116600483015291909116906305a3b80990602401602060405180830381865afa158015610318573d6000803e3d6000fd5b505050506040513d601f19601f8201168201806040525081019061033c91906115ad565b6103595760405163acf8a02d60e01b815260040160405180910390fd5b835160000361037a57604051628fcf4360e71b815260040160405180910390fd5b6001600160a01b0382163b6103a25760405163e9a0ae2960e01b815260040160405180910390fd5b6103b38263367e8d1760e01b610c39565b1580156103ce57506103cc8263078777fd60e01b610c39565b155b156103ec576040516374be437f60e01b815260040160405180910390fd5b6001600160a01b03821660009081526066602052604081206001018054610412906115cf565b9050111561043357604051632157f2d760e01b815260040160405180910390fd5b604080516060810182526001600160a01b03848116808352602080840189815284860189905260009283526066909152939020825181546001600160a01b0319169216919091178155915190919060018201906104909082611658565b50604082015160028201906104a59082611658565b5050606780546001810182556000919091527f9787eeb91fe3101235e4a76063c7023ecb40f923f97916639c598592fa30d6ae0180546001600160a01b0319166001600160a01b038516179055506040517fceccd3e08ae8e7df061ddbcd07655a0d0ee04296ddcf9cb2a95bc7b9e23bd7299061052790869086908690611717565b60405180910390a150505050565b6067818154811061054557600080fd5b6000918252602090912001546001600160a01b0316905081565b610567610c5c565b6105716000610cb6565b565b60005b85518163ffffffff1610156105db576105d387878363ffffffff16815181106105a1576105a1611755565b6020026020010151878463ffffffff16815181106105c1576105c1611755565b602002602001015160008888886106fb565b600101610576565b50505050505050565b600054610100900460ff16158080156106045750600054600160ff909116105b8061061e5750303b15801561061e575060005460ff166001145b6106865760405162461bcd60e51b815260206004820152602e60248201527f496e697469616c697a61626c653a20636f6e747261637420697320616c72656160448201526d191e481a5b9a5d1a585b1a5e995960921b60648201526084015b60405180910390fd5b6000805460ff1916600117905580156106a9576000805461ff0019166101001790555b6106b1610d08565b80156106f8576000805461ff0019169055604051600181527f7f26b83ff96e1f2b6a682f133852f6798a09c465da95921460cefb3847402498906020015b60405180910390a15b50565b8651156105db5784518751146107245760405163083247ad60e01b815260040160405180910390fd5b60005b87518163ffffffff1610156108345761075e888263ffffffff168151811061075157610751611755565b602002602001015161097b565b61077b57604051634e25774f60e11b815260040160405180910390fd5b878163ffffffff168151811061079357610793611755565b60200260200101516001600160a01b0316630678be5a88888463ffffffff16815181106107c2576107c2611755565b602002602001015187898833896040518863ffffffff1660e01b81526004016107f197969594939291906117bf565b600060405180830381600087803b15801561080b57600080fd5b505af115801561081f573d6000803e3d6000fd5b5050505061082d8160010190565b9050610727565b5050505050505050565b606660205260009081526040902080546001820180546001600160a01b03909216929161086a906115cf565b80601f0160208091040260200160405190810160405280929190818152602001828054610896906115cf565b80156108e35780601f106108b8576101008083540402835291602001916108e3565b820191906000526020600020905b8154815290600101906020018083116108c657829003601f168201915b5050505050908060020180546108f8906115cf565b80601f0160208091040260200160405190810160405280929190818152602001828054610924906115cf565b80156109715780601f1061094657610100808354040283529160200191610971565b820191906000526020600020905b81548152906001019060200180831161095457829003601f168201915b5050505050905083565b6001600160a01b038116600090815260666020526040812060010180548291906109a4906115cf565b9050119050919050565b6109b6610c5c565b6001600160a01b0381166109dd576040516324a2034760e11b815260040160405180910390fd5b606580546001600160a01b0319166001600160a01b0383169081179091556040519081527f7aed1d3e8155a07ccf395e44ea3109a0e2d6c9b29bbbe9f142d9790596f4dc80906020016106ef565b60005b82518163ffffffff161015610a9057610a8884848363ffffffff1681518110610a5957610a59611755565b6020026020010151848463ffffffff1681518110610a7957610a79611755565b60200260200101516000610a96565b600101610a2e565b50505050565b835115610a90578151845114610abf5760405163083247ad60e01b815260040160405180910390fd5b60005b84518163ffffffff161015610bbc57610aec858263ffffffff168151811061075157610751611755565b610b0957604051634e25774f60e11b815260040160405180910390fd5b848163ffffffff1681518110610b2157610b21611755565b60200260200101516001600160a01b031663378144b085858463ffffffff1681518110610b5057610b50611755565b602002602001015132866040518563ffffffff1660e01b8152600401610b79949392919061183d565b600060405180830381600087803b158015610b9357600080fd5b505af1158015610ba7573d6000803e3d6000fd5b50505050610bb58160010190565b9050610ac2565b5050505050565b610bcb610c5c565b6001600160a01b038116610c305760405162461bcd60e51b815260206004820152602660248201527f4f776e61626c653a206e6577206f776e657220697320746865207a65726f206160448201526564647265737360d01b606482015260840161067d565b6106f881610cb6565b6000610c4483610d37565b8015610c555750610c558383610d6b565b9392505050565b6033546001600160a01b031633146105715760405162461bcd60e51b815260206004820181905260248201527f4f776e61626c653a2063616c6c6572206973206e6f7420746865206f776e6572604482015260640161067d565b603380546001600160a01b038381166001600160a01b0319831681179093556040519116919082907f8be0079c531659141344cd1fd0a4f28419497f9722a3daafe3b4186f6b6457e090600090a35050565b600054610100900460ff16610d2f5760405162461bcd60e51b815260040161067d9061187f565b610571610df4565b6000610d4a826301ffc9a760e01b610d6b565b8015610d655750610d63826001600160e01b0319610d6b565b155b92915050565b604080516001600160e01b03198316602480830191909152825180830390910181526044909101909152602080820180516001600160e01b03166301ffc9a760e01b178152825160009392849283928392918391908a617530fa92503d91506000519050828015610ddd575060208210155b8015610de95750600081115b979650505050505050565b600054610100900460ff16610e1b5760405162461bcd60e51b815260040161067d9061187f565b61057133610cb6565b634e487b7160e01b600052604160045260246000fd5b604051601f8201601f191681016001600160401b0381118282101715610e6257610e62610e24565b604052919050565b600082601f830112610e7b57600080fd5b81356001600160401b03811115610e9457610e94610e24565b610ea7601f8201601f1916602001610e3a565b818152846020838601011115610ebc57600080fd5b816020850160208301376000918101602001919091529392505050565b6001600160a01b03811681146106f857600080fd5b600080600060608486031215610f0357600080fd5b83356001600160401b0380821115610f1a57600080fd5b610f2687838801610e6a565b94506020860135915080821115610f3c57600080fd5b50610f4986828701610e6a565b9250506040840135610f5a81610ed9565b809150509250925092565b600060208284031215610f7757600080fd5b5035919050565b60006001600160401b03821115610f9757610f97610e24565b5060051b60200190565b600082601f830112610fb257600080fd5b81356020610fc7610fc283610f7e565b610e3a565b82815260059290921b84018101918181019086841115610fe657600080fd5b8286015b8481101561100a578035610ffd81610ed9565b8352918301918301610fea565b509695505050505050565b60006080828403121561102757600080fd5b604051608081016001600160401b03828210818311171561104a5761104a610e24565b816040528293508435835260208501359150808216821461106a57600080fd5b816020840152604085013591508082111561108457600080fd5b61109086838701610e6a565b604084015260608501359150808211156110a957600080fd5b506110b685828601610e6a565b6060830152505092915050565b600082601f8301126110d457600080fd5b813560206110e4610fc283610f7e565b82815260059290921b8401810191818101908684111561110357600080fd5b8286015b8481101561100a5780356001600160401b038111156111265760008081fd5b6111348986838b0101611015565b845250918301918301611107565b600082601f83011261115357600080fd5b81356020611163610fc283610f7e565b82815260059290921b8401810191818101908684111561118257600080fd5b8286015b8481101561100a5780356001600160401b038111156111a55760008081fd5b6111b38986838b0101610e6a565b845250918301918301611186565b600082601f8301126111d257600080fd5b813560206111e2610fc283610f7e565b82815260059290921b8401810191818101908684111561120157600080fd5b8286015b8481101561100a5780356001600160401b038111156112245760008081fd5b6112328986838b0101611142565b845250918301918301611205565b80356004811061124f57600080fd5b919050565b60008060008060008060c0878903121561126d57600080fd5b86356001600160401b038082111561128457600080fd5b6112908a838b01610fa1565b975060208901359150808211156112a657600080fd5b6112b28a838b016110c3565b965060408901359150808211156112c857600080fd5b506112d589828a016111c1565b94505060608701356112e681610ed9565b925060808701356112f681610ed9565b915061130460a08801611240565b90509295509295509295565b60006020828403121561132257600080fd5b8135610c5581610ed9565b600080600080600080600060e0888a03121561134857600080fd5b87356001600160401b038082111561135f57600080fd5b61136b8b838c01610fa1565b985060208a013591508082111561138157600080fd5b61138d8b838c01611015565b975060408a01359150808211156113a357600080fd5b506113b08a828b01611142565b9550506060880135935060808801356113c881610ed9565b925060a08801356113d881610ed9565b91506113e660c08901611240565b905092959891949750929550565b6000815180845260005b8181101561141a576020818501810151868301820152016113fe565b506000602082860101526020601f19601f83011685010191505092915050565b6001600160a01b038416815260606020820181905260009061145e908301856113f4565b828103604084015261147081856113f4565b9695505050505050565b60008060006060848603121561148f57600080fd5b83356001600160401b03808211156114a657600080fd5b6114b287838801610fa1565b945060208601359150808211156114c857600080fd5b6114d4878388016110c3565b935060408601359150808211156114ea57600080fd5b506114f7868287016111c1565b9150509250925092565b6000806000806080858703121561151757600080fd5b84356001600160401b038082111561152e57600080fd5b61153a88838901610fa1565b9550602087013591508082111561155057600080fd5b61155c88838901611015565b9450604087013591508082111561157257600080fd5b5061157f87828801611142565b949793965093946060013593505050565b6000602082840312156115a257600080fd5b8151610c5581610ed9565b6000602082840312156115bf57600080fd5b81518015158114610c5557600080fd5b600181811c908216806115e357607f821691505b60208210810361160357634e487b7160e01b600052602260045260246000fd5b50919050565b601f82111561165357600081815260208120601f850160051c810160208610156116305750805b601f850160051c820191505b8181101561164f5782815560010161163c565b5050505b505050565b81516001600160401b0381111561167157611671610e24565b6116858161167f84546115cf565b84611609565b602080601f8311600181146116ba57600084156116a25750858301515b600019600386901b1c1916600185901b17855561164f565b600085815260208120601f198616915b828110156116e9578886015182559484019460019091019084016116ca565b50858210156117075787850151600019600388901b60f8161c191681555b5050505050600190811b01905550565b60608152600061172a60608301866113f4565b828103602084015261173c81866113f4565b91505060018060a01b0383166040830152949350505050565b634e487b7160e01b600052603260045260246000fd5b805182526001600160401b036020820151166020830152600060408201516080604085015261179d60808501826113f4565b9050606083015184820360608601526117b682826113f4565b95945050505050565b60e0815260006117d260e083018a61176b565b82810360208401526117e4818a6113f4565b6001600160a01b038981166040860152606085018990528781166080860152861660a08501529150506004831061182b57634e487b7160e01b600052602160045260246000fd5b8260c083015298975050505050505050565b608081526000611850608083018761176b565b828103602084015261186281876113f4565b6001600160a01b0395909516604084015250506060015292915050565b6020808252602b908201527f496e697469616c697a61626c653a20636f6e7472616374206973206e6f74206960408201526a6e697469616c697a696e6760a81b60608201526080019056fea2646970667358221220f3b37011f4e3853a62dafc9799abcf51a26b9d29a435436d77cc47ca28308c9c64736f6c63430008150033",
    "linkReferences": {}
  },
  "methodIdentifiers": {
    "bulkRunModules(address[],(bytes32,uint64,bytes,bytes)[],bytes[][])": "e2baec4a",
    "bulkRunModulesV2(address[],(bytes32,uint64,bytes,bytes)[],bytes[][],address,address,uint8)": "79638ef1",
    "getModulesNumber()": "f030bba6",
    "initialize()": "8129fc1c",
    "isContractAddress(address)": "8ed9606a",
    "isRegistered(address)": "c3c5a547",
    "moduleAddresses(uint256)": "6155fdf7",
    "modules(address)": "a8ee49fe",
    "owner()": "8da5cb5b",
    "register(string,string,address)": "5664d69c",
    "renounceOwnership()": "715018a6",
    "router()": "f887ea40",
    "runModules(address[],(bytes32,uint64,bytes,bytes),bytes[],uint256)": "e8e253ca",
    "runModulesV2(address[],(bytes32,uint64,bytes,bytes),bytes[],uint256,address,address,uint8)": "a8015e43",
    "transferOwnership(address)": "f2fde38b",
    "updateRouter(address)": "c851cc32"
  },
  "id": 49
}