{
  "abi": [
    {
      "type": "constructor",
      "inputs": [
        {
          "name": "_isTestnet",
          "type": "bool",
          "internalType": "bool"
        }
      ],
      "stateMutability": "nonpayable"
    },
    {
      "type": "function",
      "name": "deployDefaultPortal",
      "inputs": [
        {
          "name": "modules",
          "type": "address[]",
          "internalType": "address[]"
        },
        {
          "name": "name",
          "type": "string",
          "internalType": "string"
        },
        {
          "name": "description",
          "type": "string",
          "internalType": "string"
        },
        {
          "name": "isRevocable",
          "type": "bool",
          "internalType": "bool"
        },
        {
          "name": "ownerName",
          "type": "string",
          "internalType": "string"
        }
      ],
      "outputs": [],
      "stateMutability": "nonpayable"
    },
    {
      "type": "function",
      "name": "getIsTestnet",
      "inputs": [],
      "outputs": [
        {
          "name": "",
          "type": "bool",
          "internalType": "bool"
        }
      ],
      "stateMutability": "view"
    },
    {
      "type": "function",
      "name": "getPortalByAddress",
      "inputs": [
        {
          "name": "id",
          "type": "address",
          "internalType": "address"
        }
      ],
      "outputs": [
        {
          "name": "",
          "type": "tuple",
          "internalType": "struct Portal",
          "components": [
            {
              "name": "id",
              "type": "address",
              "internalType": "address"
            },
            {
              "name": "ownerAddress",
              "type": "address",
              "internalType": "address"
            },
            {
              "name": "modules",
              "type": "address[]",
              "internalType": "address[]"
            },
            {
              "name": "isRevocable",
              "type": "bool",
              "internalType": "bool"
            },
            {
              "name": "name",
              "type": "string",
              "internalType": "string"
            },
            {
              "name": "description",
              "type": "string",
              "internalType": "string"
            },
            {
              "name": "ownerName",
              "type": "string",
              "internalType": "string"
            }
          ]
        }
      ],
      "stateMutability": "view"
    },
    {
      "type": "function",
      "name": "getPortalsCount",
      "inputs": [],
      "outputs": [
        {
          "name": "",
          "type": "uint256",
          "internalType": "uint256"
        }
      ],
      "stateMutability": "view"
    },
    {
      "type": "function",
      "name": "initialize",
      "inputs": [],
      "outputs": [],
      "stateMutability": "nonpayable"
    },
    {
      "type": "function",
      "name": "isAllowlisted",
      "inputs": [
        {
          "name": "user",
          "type": "address",
          "internalType": "address"
        }
      ],
      "outputs": [
        {
          "name": "",
          "type": "bool",
          "internalType": "bool"
        }
      ],
      "stateMutability": "view"
    },
    {
      "type": "function",
      "name": "isIssuer",
      "inputs": [
        {
          "name": "issuer",
          "type": "address",
          "internalType": "address"
        }
      ],
      "outputs": [
        {
          "name": "",
          "type": "bool",
          "internalType": "bool"
        }
      ],
      "stateMutability": "view"
    },
    {
      "type": "function",
      "name": "isRegistered",
      "inputs": [
        {
          "name": "id",
          "type": "address",
          "internalType": "address"
        }
      ],
      "outputs": [
        {
          "name": "",
          "type": "bool",
          "internalType": "bool"
        }
      ],
      "stateMutability": "view"
    },
    {
      "type": "function",
      "name": "owner",
      "inputs": [],
      "outputs": [
        {
          "name": "",
          "type": "address",
          "internalType": "address"
        }
      ],
      "stateMutability": "view"
    },
    {
      "type": "function",
      "name": "register",
      "inputs": [
        {
          "name": "id",
          "type": "address",
          "internalType": "address"
        },
        {
          "name": "name",
          "type": "string",
          "internalType": "string"
        },
        {
          "name": "description",
          "type": "string",
          "internalType": "string"
        },
        {
          "name": "isRevocable",
          "type": "bool",
          "internalType": "bool"
        },
        {
          "name": "ownerName",
          "type": "string",
          "internalType": "string"
        }
      ],
      "outputs": [],
      "stateMutability": "nonpayable"
    },
    {
      "type": "function",
      "name": "removeIssuer",
      "inputs": [
        {
          "name": "issuer",
          "type": "address",
          "internalType": "address"
        }
      ],
      "outputs": [],
      "stateMutability": "nonpayable"
    },
    {
      "type": "function",
      "name": "renounceOwnership",
      "inputs": [],
      "outputs": [],
      "stateMutability": "nonpayable"
    },
    {
      "type": "function",
      "name": "revoke",
      "inputs": [
        {
          "name": "id",
          "type": "address",
          "internalType": "address"
        }
      ],
      "outputs": [],
      "stateMutability": "nonpayable"
    },
    {
      "type": "function",
      "name": "router",
      "inputs": [],
      "outputs": [
        {
          "name": "",
          "type": "address",
          "internalType": "contract IRouter"
        }
      ],
      "stateMutability": "view"
    },
    {
      "type": "function",
      "name": "setIsTestnet",
      "inputs": [
        {
          "name": "_isTestnet",
          "type": "bool",
          "internalType": "bool"
        }
      ],
      "outputs": [],
      "stateMutability": "nonpayable"
    },
    {
      "type": "function",
      "name": "setIssuer",
      "inputs": [
        {
          "name": "issuer",
          "type": "address",
          "internalType": "address"
        }
      ],
      "outputs": [],
      "stateMutability": "nonpayable"
    },
    {
      "type": "function",
      "name": "transferOwnership",
      "inputs": [
        {
          "name": "newOwner",
          "type": "address",
          "internalType": "address"
        }
      ],
      "outputs": [],
      "stateMutability": "nonpayable"
    },
    {
      "type": "function",
      "name": "updateRouter",
      "inputs": [
        {
          "name": "_router",
          "type": "address",
          "internalType": "address"
        }
      ],
      "outputs": [],
      "stateMutability": "nonpayable"
    },
    {
      "type": "event",
      "name": "Initialized",
      "inputs": [
        {
          "name": "version",
          "type": "uint8",
          "indexed": false,
          "internalType": "uint8"
        }
      ],
      "anonymous": false
    },
    {
      "type": "event",
      "name": "IsTestnetUpdated",
      "inputs": [
        {
          "name": "isTestnet",
          "type": "bool",
          "indexed": false,
          "internalType": "bool"
        }
      ],
      "anonymous": false
    },
    {
      "type": "event",
      "name": "IssuerAdded",
      "inputs": [
        {
          "name": "issuerAddress",
          "type": "address",
          "indexed": false,
          "internalType": "address"
        }
      ],
      "anonymous": false
    },
    {
      "type": "event",
      "name": "IssuerRemoved",
      "inputs": [
        {
          "name": "issuerAddress",
          "type": "address",
          "indexed": false,
          "internalType": "address"
        }
      ],
      "anonymous": false
    },
    {
      "type": "event",
      "name": "OwnershipTransferred",
      "inputs": [
        {
          "name": "previousOwner",
          "type": "address",
          "indexed": true,
          "internalType": "address"
        },
        {
          "name": "newOwner",
          "type": "address",
          "indexed": true,
          "internalType": "address"
        }
      ],
      "anonymous": false
    },
    {
      "type": "event",
      "name": "PortalRegistered",
      "inputs": [
        {
          "name": "name",
          "type": "string",
          "indexed": false,
          "internalType": "string"
        },
        {
          "name": "description",
          "type": "string",
          "indexed": false,
          "internalType": "string"
        },
        {
          "name": "portalAddress",
          "type": "address",
          "indexed": false,
          "internalType": "address"
        }
      ],
      "anonymous": false
    },
    {
      "type": "event",
      "name": "PortalRevoked",
      "inputs": [
        {
          "name": "portalAddress",
          "type": "address",
          "indexed": false,
          "internalType": "address"
        }
      ],
      "anonymous": false
    },
    {
      "type": "event",
      "name": "RouterUpdated",
      "inputs": [
        {
          "name": "routerAddress",
          "type": "address",
          "indexed": false,
          "internalType": "address"
        }
      ],
      "anonymous": false
    },
    {
      "type": "error",
      "name": "AddressInvalid",
      "inputs": []
    },
    {
      "type": "error",
      "name": "OnlyAllowlisted",
      "inputs": []
    },
    {
      "type": "error",
      "name": "PortalAddressInvalid",
      "inputs": []
    },
    {
      "type": "error",
      "name": "PortalAlreadyExists",
      "inputs": []
    },
    {
      "type": "error",
      "name": "PortalDescriptionMissing",
      "inputs": []
    },
    {
      "type": "error",
      "name": "PortalInvalid",
      "inputs": []
    },
    {
      "type": "error",
      "name": "PortalNameMissing",
      "inputs": []
    },
    {
      "type": "error",
      "name": "PortalNotRegistered",
      "inputs": []
    },
    {
      "type": "error",
      "name": "PortalOwnerNameMissing",
      "inputs": []
    },
    {
      "type": "error",
      "name": "RouterInvalid",
      "inputs": []
    }
  ],
  "bytecode": {
    "object": "0x60806040523480156200001157600080fd5b506040516200375a3803806200375a833981016040819052620000349162000116565b6200003e62000055565b6069805460ff191691151591909117905562000141565b600054610100900460ff1615620000c25760405162461bcd60e51b815260206004820152602760248201527f496e697469616c697a61626c653a20636f6e747261637420697320696e697469604482015266616c697a696e6760c81b606482015260840160405180910390fd5b60005460ff9081161462000114576000805460ff191660ff9081179091556040519081527f7f26b83ff96e1f2b6a682f133852f6798a09c465da95921460cefb38474024989060200160405180910390a15b565b6000602082840312156200012957600080fd5b815180151581146200013a57600080fd5b9392505050565b61360980620001516000396000f3fe60806040523480156200001157600080fd5b50600436106200012d5760003560e01c8063877b9a6711620000af578063c851cc32116200007a578063c851cc3214620002a5578063e569aabd14620002bc578063f0d124ec14620002c8578063f2fde38b14620002df578063f887ea4014620002f657600080fd5b8063877b9a6714620001f95780638da5cb5b1462000228578063c0fbc748146200024e578063c3c5a547146200027457600080fd5b806347bc709311620000fc57806347bc709314620001a057806355cc4e5714620001b7578063715018a614620001ce57806374a8f10314620001d85780638129fc1c14620001ef57600080fd5b806305a3b80914620001325780632246f111146200015e57806328c0ddf5146200017757806345592640146200018e575b600080fd5b6200014962000143366004620012c0565b6200030a565b60405190151581526020015b60405180910390f35b620001756200016f366004620012f6565b6200033d565b005b6200017562000188366004620013d5565b6200038f565b60685460405190815260200162000155565b62000175620001b1366004620012c0565b620006b0565b62000175620001c8366004620012c0565b6200070c565b6200017562000793565b62000175620001e9366004620012c0565b620007ab565b6200017562000a81565b620001496200020a366004620012c0565b6001600160a01b031660009081526067602052604090205460ff1690565b6033546001600160a01b03165b6040516001600160a01b03909116815260200162000155565b620002656200025f366004620012c0565b62000b9c565b6040516200015591906200151d565b6200014962000285366004620012c0565b6001600160a01b0390811660009081526066602052604090205416151590565b62000175620002b6366004620012c0565b62000e89565b60695460ff1662000149565b62000175620002d9366004620015e7565b62000f0a565b62000175620002f0366004620012c0565b62000f9d565b60655462000235906001600160a01b031681565b60695460009060ff16806200033757506001600160a01b03821660009081526067602052604090205460ff165b92915050565b6200034762001019565b6069805460ff19168215159081179091556040519081527f21e0e9c4df7d2dd6974ac374a82e79c3faf589fdb01055addc8b2c34b7810649906020015b60405180910390a150565b336200039b816200030a565b620003b95760405163acf8a02d60e01b815260040160405180910390fd5b6001600160a01b038681166000908152606660205260409020541615620003f35760405163b11640c960e01b815260040160405180910390fd5b6001600160a01b0386163b6200041c5760405163a3f8514f60e01b815260040160405180910390fd5b84516000036200043f576040516320789fc760e11b815260040160405180910390fd5b83516000036200046257604051631bcf1a0360e11b815260040160405180910390fd5b8151600003620004855760405163c57edda160e01b815260040160405180910390fd5b62000498866331c1afd560e01b62001075565b620004b657604051632c1d4deb60e01b815260040160405180910390fd5b6000866001600160a01b031663b2494df36040518163ffffffff1660e01b8152600401600060405180830381865afa158015620004f7573d6000803e3d6000fd5b505050506040513d6000823e601f3d908101601f19168201604052620005219190810190620016e7565b6040805160e0810182526001600160a01b03808b168083523360208085019182528486018781528b15156060870152608086018e905260a086018d905260c086018b905260009384526066825295909220845181549085166001600160a01b031991821617825591516001820180549190951692169190911790925592518051949550919384939192620005bd9260028501929101906200121b565b50606082015160038201805460ff191691151591909117905560808201516004820190620005ec908262001835565b5060a0820151600582019062000603908262001835565b5060c082015160068201906200061a908262001835565b5050606880546001810182556000919091527fa2153420d844928b4421650203c77babc8b33d7f2e7b450e2966db0c220977530180546001600160a01b0319166001600160a01b038b16179055506040517f2b7df910f1bbb7a5c5b32de79907b6445d28b219a71bcb754b46d8d225d27e86906200069e90899089908c9062001902565b60405180910390a15050505050505050565b620006ba62001019565b6001600160a01b038116600081815260676020908152604091829020805460ff1916905590519182527faf66545c919a3be306ee446d8f42a9558b5b022620df880517bc9593ec0f2d52910162000384565b6200071662001019565b6001600160a01b0381166200073e5760405163028be62f60e61b815260040160405180910390fd5b6001600160a01b038116600081815260676020908152604091829020805460ff1916600117905590519182527f05e7c881d716bee8cb7ed92293133ba156704252439e5c502c277448f04e20c2910162000384565b6200079d62001019565b620007a960006200109d565b565b620007b562001019565b6001600160a01b0380821660009081526066602052604090205416620007ee5760405163082cec1d60e01b815260040160405180910390fd5b6040805160e0810182526000808252602080830182815284518381528083018652848601908152606085018490528551808401875284815260808601528551808401875284815260a08601528551808401875284815260c08601526001600160a01b0387811685526066845295909320845181549087166001600160a01b031991821617825591516001820180549190971692169190911790945590518051929392620008a292600285019201906200121b565b50606082015160038201805460ff191691151591909117905560808201516004820190620008d1908262001835565b5060a08201516005820190620008e8908262001835565b5060c08201516006820190620008ff908262001835565b5060009150819050805b6068548110156200096557836001600160a01b03166068828154811062000934576200093462001944565b6000918252602090912001546001600160a01b0316036200095c578091506001925062000965565b60010162000909565b5081620009855760405163082cec1d60e01b815260040160405180910390fd5b6068805462000997906001906200195a565b81548110620009aa57620009aa62001944565b600091825260209091200154606880546001600160a01b039092169183908110620009d957620009d962001944565b9060005260206000200160006101000a8154816001600160a01b0302191690836001600160a01b03160217905550606880548062000a1b5762000a1b6200197c565b6000828152602090819020600019908301810180546001600160a01b03191690559091019091556040516001600160a01b03851681527f3d6e85d7560af02579467bce30e02d3f08d3527a14d519ff42bee5774c70f95a910160405180910390a1505050565b600054610100900460ff161580801562000aa25750600054600160ff909116105b8062000abe5750303b15801562000abe575060005460ff166001145b62000b275760405162461bcd60e51b815260206004820152602e60248201527f496e697469616c697a61626c653a20636f6e747261637420697320616c72656160448201526d191e481a5b9a5d1a585b1a5e995960921b60648201526084015b60405180910390fd5b6000805460ff19166001179055801562000b4b576000805461ff0019166101001790555b62000b55620010ef565b801562000b99576000805461ff0019169055604051600181527f7f26b83ff96e1f2b6a682f133852f6798a09c465da95921460cefb38474024989060200162000384565b50565b6040805160e0810182526000808252602082018190526060928201839052828201526080810182905260a0810182905260c08101919091526001600160a01b038083166000908152606660205260409020541662000c0d5760405163082cec1d60e01b815260040160405180910390fd5b6001600160a01b03808316600090815260666020908152604091829020825160e0810184528154851681526001820154909416848301526002810180548451818502810185018652818152929486019383018282801562000c9857602002820191906000526020600020905b81546001600160a01b0316815260019091019060200180831162000c79575b5050509183525050600382015460ff161515602082015260048201805460409092019162000cc690620017a6565b80601f016020809104026020016040519081016040528092919081815260200182805462000cf490620017a6565b801562000d455780601f1062000d195761010080835404028352916020019162000d45565b820191906000526020600020905b81548152906001019060200180831162000d2757829003601f168201915b5050505050815260200160058201805462000d6090620017a6565b80601f016020809104026020016040519081016040528092919081815260200182805462000d8e90620017a6565b801562000ddf5780601f1062000db35761010080835404028352916020019162000ddf565b820191906000526020600020905b81548152906001019060200180831162000dc157829003601f168201915b5050505050815260200160068201805462000dfa90620017a6565b80601f016020809104026020016040519081016040528092919081815260200182805462000e2890620017a6565b801562000e795780601f1062000e4d5761010080835404028352916020019162000e79565b820191906000526020600020905b81548152906001019060200180831162000e5b57829003601f168201915b5050505050815250509050919050565b62000e9362001019565b6001600160a01b03811662000ebb576040516324a2034760e11b815260040160405180910390fd5b606580546001600160a01b0319166001600160a01b0383169081179091556040519081527f7aed1d3e8155a07ccf395e44ea3109a0e2d6c9b29bbbe9f142d9790596f4dc809060200162000384565b3362000f16816200030a565b62000f345760405163acf8a02d60e01b815260040160405180910390fd5b606554604051600091899189916001600160a01b03169062000f569062001285565b62000f649392919062001992565b604051809103906000f08015801562000f81573d6000803e3d6000fd5b50905062000f9381878787876200038f565b5050505050505050565b62000fa762001019565b6001600160a01b0381166200100e5760405162461bcd60e51b815260206004820152602660248201527f4f776e61626c653a206e6577206f776e657220697320746865207a65726f206160448201526564647265737360d01b606482015260840162000b1e565b62000b99816200109d565b6033546001600160a01b03163314620007a95760405162461bcd60e51b815260206004820181905260248201527f4f776e61626c653a2063616c6c6572206973206e6f7420746865206f776e6572604482015260640162000b1e565b6000620010828362001123565b80156200109657506200109683836200115b565b9392505050565b603380546001600160a01b038381166001600160a01b0319831681179093556040519116919082907f8be0079c531659141344cd1fd0a4f28419497f9722a3daafe3b4186f6b6457e090600090a35050565b600054610100900460ff16620011195760405162461bcd60e51b815260040162000b1e90620019f9565b620007a9620011e6565b600062001138826301ffc9a760e01b6200115b565b801562000337575062001154826001600160e01b03196200115b565b1592915050565b604080516001600160e01b03198316602480830191909152825180830390910181526044909101909152602080820180516001600160e01b03166301ffc9a760e01b178152825160009392849283928392918391908a617530fa92503d91506000519050828015620011ce575060208210155b8015620011db5750600081115b979650505050505050565b600054610100900460ff16620012105760405162461bcd60e51b815260040162000b1e90620019f9565b620007a9336200109d565b82805482825590600052602060002090810192821562001273579160200282015b828111156200127357825182546001600160a01b0319166001600160a01b039091161782556020909201916001909101906200123c565b506200128192915062001293565b5090565b611b8f8062001a4583390190565b5b8082111562001281576000815560010162001294565b6001600160a01b038116811462000b9957600080fd5b600060208284031215620012d357600080fd5b81356200109681620012aa565b80358015158114620012f157600080fd5b919050565b6000602082840312156200130957600080fd5b6200109682620012e0565b634e487b7160e01b600052604160045260246000fd5b604051601f8201601f1916810167ffffffffffffffff8111828210171562001356576200135662001314565b604052919050565b600082601f8301126200137057600080fd5b813567ffffffffffffffff8111156200138d576200138d62001314565b620013a2601f8201601f19166020016200132a565b818152846020838601011115620013b857600080fd5b816020850160208301376000918101602001919091529392505050565b600080600080600060a08688031215620013ee57600080fd5b8535620013fb81620012aa565b9450602086013567ffffffffffffffff808211156200141957600080fd5b6200142789838a016200135e565b955060408801359150808211156200143e57600080fd5b6200144c89838a016200135e565b94506200145c60608901620012e0565b935060808801359150808211156200147357600080fd5b5062001482888289016200135e565b9150509295509295909350565b600081518084526020808501945080840160005b83811015620014ca5781516001600160a01b031687529582019590820190600101620014a3565b509495945050505050565b6000815180845260005b81811015620014fd57602081850181015186830182015201620014df565b506000602082860101526020601f19601f83011685010191505092915050565b602080825282516001600160a01b0316828201528201516000906200154d60408401826001600160a01b03169052565b50604083015160e060608401526200156a6101008401826200148f565b9050606084015162001580608085018215159052565b506080840151601f19808584030160a08601526200159f8383620014d5565b925060a08601519150808584030160c0860152620015be8383620014d5565b925060c08601519150808584030160e086015250620015de8282620014d5565b95945050505050565b60008060008060008060a087890312156200160157600080fd5b863567ffffffffffffffff808211156200161a57600080fd5b818901915089601f8301126200162f57600080fd5b8135818111156200163f57600080fd5b8a60208260051b85010111156200165557600080fd5b6020928301985096509088013590808211156200167157600080fd5b6200167f8a838b016200135e565b955060408901359150808211156200169657600080fd5b620016a48a838b016200135e565b9450620016b460608a01620012e0565b93506080890135915080821115620016cb57600080fd5b50620016da89828a016200135e565b9150509295509295509295565b60006020808385031215620016fb57600080fd5b825167ffffffffffffffff808211156200171457600080fd5b818501915085601f8301126200172957600080fd5b8151818111156200173e576200173e62001314565b8060051b9150620017518483016200132a565b81815291830184019184810190888411156200176c57600080fd5b938501935b838510156200179a57845192506200178983620012aa565b828252938501939085019062001771565b98975050505050505050565b600181811c90821680620017bb57607f821691505b602082108103620017dc57634e487b7160e01b600052602260045260246000fd5b50919050565b601f8211156200183057600081815260208120601f850160051c810160208610156200180b5750805b601f850160051c820191505b818110156200182c5782815560010162001817565b5050505b505050565b815167ffffffffffffffff81111562001852576200185262001314565b6200186a81620018638454620017a6565b84620017e2565b602080601f831160018114620018a25760008415620018895750858301515b600019600386901b1c1916600185901b1785556200182c565b600085815260208120601f198616915b82811015620018d357888601518255948401946001909101908401620018b2565b5085821015620018f25787850151600019600388901b60f8161c191681555b5050505050600190811b01905550565b606081526000620019176060830186620014d5565b82810360208401526200192b8186620014d5565b91505060018060a01b0383166040830152949350505050565b634e487b7160e01b600052603260045260246000fd5b818103818111156200033757634e487b7160e01b600052601160045260246000fd5b634e487b7160e01b600052603160045260246000fd5b6040808252810183905260008460608301825b86811015620019d9578235620019bb81620012aa565b6001600160a01b0316825260209283019290910190600101620019a5565b506001600160a01b03949094166020939093019290925250909392505050565b6020808252602b908201527f496e697469616c697a61626c653a20636f6e7472616374206973206e6f74206960408201526a6e697469616c697a696e6760a81b60608201526080019056fe60806040523480156200001157600080fd5b5060405162001b8f38038062001b8f8339810160408190526200003491620002b7565b8151829082906200004d90600190602085019062000203565b50600080546001600160a01b0319166001600160a01b0383169081179091556040805163bfa6658560e01b8152905163bfa66585916004808201926020929091908290030181865afa158015620000a8573d6000803e3d6000fd5b505050506040513d601f19601f82011682018060405250810190620000ce91906200039d565b600380546001600160a01b0319166001600160a01b03928316179055600054604080516376f63ca960e11b81529051919092169163edec79529160048083019260209291908290030181865afa1580156200012d573d6000803e3d6000fd5b505050506040513d601f19601f820116820180604052508101906200015391906200039d565b600280546001600160a01b0319166001600160a01b0392831617905560005460408051635bed64bb60e11b81529051919092169163b7dac9769160048083019260209291908290030181865afa158015620001b2573d6000803e3d6000fd5b505050506040513d601f19601f82011682018060405250810190620001d891906200039d565b600480546001600160a01b0319166001600160a01b039290921691909117905550620003c292505050565b8280548282559060005260206000209081019282156200025b579160200282015b828111156200025b57825182546001600160a01b0319166001600160a01b0390911617825560209092019160019091019062000224565b50620002699291506200026d565b5090565b5b808211156200026957600081556001016200026e565b634e487b7160e01b600052604160045260246000fd5b80516001600160a01b0381168114620002b257600080fd5b919050565b60008060408385031215620002cb57600080fd5b82516001600160401b0380821115620002e357600080fd5b818501915085601f830112620002f857600080fd5b81516020828211156200030f576200030f62000284565b8160051b604051601f19603f8301168101818110868211171562000337576200033762000284565b6040529283528183019350848101820192898411156200035657600080fd5b948201945b838610156200037f576200036f866200029a565b855294820194938201936200035b565b96506200039090508782016200029a565b9450505050509250929050565b600060208284031215620003b057600080fd5b620003bb826200029a565b9392505050565b6117bd80620003d26000396000f3fe6080604052600436106101145760003560e01c8063b2494df3116100a0578063ecdbb4fd11610064578063ecdbb4fd146102d6578063ed6d73f9146102e9578063ee9db95114610309578063f3fef3a314610329578063f887ea401461034857600080fd5b8063b2494df314610241578063b666493414610263578063b75c7dc614610283578063b95459e4146102a3578063c08b0ace146102c357600080fd5b80634ada8076116100e75780634ada807614610196578063523ba7ca146101b65780637deb12dc146101d657806381b2248a146101f65780638388e2261461022e57600080fd5b806301ffc9a714610119578063074321961461014e5780633cc30e2a146101635780634426d9d314610183575b600080fd5b34801561012557600080fd5b50610139610134366004610b0a565b610368565b60405190151581526020015b60405180910390f35b61016161015c366004610d81565b6103ba565b005b34801561016f57600080fd5b5061016161017e366004610f3d565b610494565b610161610191366004610fc4565b61056f565b3480156101a257600080fd5b506101616101b1366004611026565b610621565b3480156101c257600080fd5b506101616101d1366004611062565b61068f565b3480156101e257600080fd5b506101616101f1366004611062565b610726565b34801561020257600080fd5b506102166102113660046110bb565b610760565b6040516001600160a01b039091168152602001610145565b34801561023a57600080fd5b5033610216565b34801561024d57600080fd5b5061025661078a565b60405161014591906110d4565b34801561026f57600080fd5b50600454610216906001600160a01b031681565b34801561028f57600080fd5b5061016161029e3660046110bb565b6107ec565b3480156102af57600080fd5b50600254610216906001600160a01b031681565b6101616102d1366004610d81565b610826565b6101616102e4366004610fc4565b610899565b3480156102f557600080fd5b50600354610216906001600160a01b031681565b34801561031557600080fd5b50610161610324366004610f3d565b6108d0565b34801561033557600080fd5b50610161610344366004611136565b5050565b34801561035457600080fd5b50600054610216906001600160a01b031681565b60006001600160e01b03198216633797819960e01b148061039957506001600160e01b031982166331c1afd560e01b145b806103b457506001600160e01b031982166301ffc9a760e01b145b92915050565b60025460405163747129e560e11b81526001600160a01b039091169063e8e253ca906103f1906001908690869034906004016112a4565b600060405180830381600087803b15801561040b57600080fd5b505af115801561041f573d6000803e3d6000fd5b5050505061042e826103443390565b6003546001600160a01b03166362fa3d4583336040518363ffffffff1660e01b815260040161045e9291906112ef565b600060405180830381600087803b15801561047857600080fd5b505af115801561048c573d6000803e3d6000fd5b505050505050565b60025460405163715d762560e11b81526001600160a01b039091169063e2baec4a906104c990600190869086906004016113a9565b600060405180830381600087803b1580156104e357600080fd5b505af11580156104f7573d6000803e3d6000fd5b5050505061050683838361090f565b6003546001600160a01b0316636ec4d4cb8484336040518463ffffffff1660e01b81526004016105389392919061141c565b600060405180830381600087803b15801561055257600080fd5b505af1158015610566573d6000803e3d6000fd5b50505050505050565b6002546001600160a01b031663a8015e436001848434338060026040518863ffffffff1660e01b81526004016105ab979695949392919061147c565b600060405180830381600087803b1580156105c557600080fd5b505af11580156105d9573d6000803e3d6000fd5b505050506105ef83836105e93390565b346109b5565b6003546001600160a01b0316638ffa736b8484336040518463ffffffff1660e01b8152600401610538939291906114f0565b61062a81610a61565b60035460405163256d403b60e11b81526001600160a01b0390911690634ada80769061065a908490600401611521565b600060405180830381600087803b15801561067457600080fd5b505af1158015610688573d6000803e3d6000fd5b5050505050565b60025460405163715d762560e11b81526001600160a01b039091169063e2baec4a906106c490600190869086906004016113a9565b600060405180830381600087803b1580156106de57600080fd5b505af11580156106f2573d6000803e3d6000fd5b505050506003546001600160a01b031663a8e2812d83336040518363ffffffff1660e01b815260040161045e929190611534565b6002546001600160a01b03166379638ef160018484338060016040518763ffffffff1660e01b81526004016106c496959493929190611547565b6001818154811061077057600080fd5b6000918252602090912001546001600160a01b0316905081565b606060018054806020026020016040519081016040528092919081815260200182805480156107e257602002820191906000526020600020905b81546001600160a01b031681526001909101906020018083116107c4575b5050505050905090565b6107f581610a61565b600354604051635bae3ee360e11b8152600481018390526001600160a01b039091169063b75c7dc69060240161065a565b6002546001600160a01b031663a8015e436001848434338060006040518863ffffffff1660e01b8152600401610862979695949392919061147c565b600060405180830381600087803b15801561087c57600080fd5b505af1158015610890573d6000803e3d6000fd5b5050505061042e565b60025460405163747129e560e11b81526001600160a01b039091169063e8e253ca906105ab906001908690869034906004016112a4565b6002546001600160a01b03166379638ef160018484338060036040518763ffffffff1660e01b81526004016104c996959493929190611547565b505050565b6004805460405163181f78e960e31b815230928101929092526001600160a01b03169063c0fbc74890602401600060405180830381865afa158015610958573d6000803e3d6000fd5b505050506040513d6000823e601f3d908101601f19168201604052610980919081019061167c565b602001516001600160a01b0316336001600160a01b03161461090a576040516371f63e3160e01b815260040160405180910390fd5b6004805460405163181f78e960e31b815230928101929092526001600160a01b03169063c0fbc74890602401600060405180830381865afa1580156109fe573d6000803e3d6000fd5b505050506040513d6000823e601f3d908101601f19168201604052610a26919081019061167c565b602001516001600160a01b0316336001600160a01b031614610a5b576040516371f63e3160e01b815260040160405180910390fd5b50505050565b6004805460405163181f78e960e31b815230928101929092526001600160a01b03169063c0fbc74890602401600060405180830381865afa158015610aaa573d6000803e3d6000fd5b505050506040513d6000823e601f3d908101601f19168201604052610ad2919081019061167c565b602001516001600160a01b0316336001600160a01b031614610b07576040516371f63e3160e01b815260040160405180910390fd5b50565b600060208284031215610b1c57600080fd5b81356001600160e01b031981168114610b3457600080fd5b9392505050565b634e487b7160e01b600052604160045260246000fd5b60405160e081016001600160401b0381118282101715610b7357610b73610b3b565b60405290565b604051601f8201601f191681016001600160401b0381118282101715610ba157610ba1610b3b565b604052919050565b60006001600160401b03821115610bc257610bc2610b3b565b50601f01601f191660200190565b600082601f830112610be157600080fd5b8135610bf4610bef82610ba9565b610b79565b818152846020838601011115610c0957600080fd5b816020850160208301376000918101602001919091529392505050565b600060808284031215610c3857600080fd5b604051608081016001600160401b038282108183111715610c5b57610c5b610b3b565b8160405282935084358352602085013591508082168214610c7b57600080fd5b8160208401526040850135915080821115610c9557600080fd5b610ca186838701610bd0565b60408401526060850135915080821115610cba57600080fd5b50610cc785828601610bd0565b6060830152505092915050565b60006001600160401b03821115610ced57610ced610b3b565b5060051b60200190565b600082601f830112610d0857600080fd5b81356020610d18610bef83610cd4565b82815260059290921b84018101918181019086841115610d3757600080fd5b8286015b84811015610d765780356001600160401b03811115610d5a5760008081fd5b610d688986838b0101610bd0565b845250918301918301610d3b565b509695505050505050565b60008060408385031215610d9457600080fd5b82356001600160401b0380821115610dab57600080fd5b610db786838701610c26565b93506020850135915080821115610dcd57600080fd5b50610dda85828601610cf7565b9150509250929050565b600082601f830112610df557600080fd5b81356020610e05610bef83610cd4565b82815260059290921b84018101918181019086841115610e2457600080fd5b8286015b84811015610d765780358352918301918301610e28565b600082601f830112610e5057600080fd5b81356020610e60610bef83610cd4565b82815260059290921b84018101918181019086841115610e7f57600080fd5b8286015b84811015610d765780356001600160401b03811115610ea25760008081fd5b610eb08986838b0101610c26565b845250918301918301610e83565b600082601f830112610ecf57600080fd5b81356020610edf610bef83610cd4565b82815260059290921b84018101918181019086841115610efe57600080fd5b8286015b84811015610d765780356001600160401b03811115610f215760008081fd5b610f2f8986838b0101610cf7565b845250918301918301610f02565b600080600060608486031215610f5257600080fd5b83356001600160401b0380821115610f6957600080fd5b610f7587838801610de4565b94506020860135915080821115610f8b57600080fd5b610f9787838801610e3f565b93506040860135915080821115610fad57600080fd5b50610fba86828701610ebe565b9150509250925092565b600080600060608486031215610fd957600080fd5b8335925060208401356001600160401b0380821115610ff757600080fd5b61100387838801610c26565b9350604086013591508082111561101957600080fd5b50610fba86828701610cf7565b60006020828403121561103857600080fd5b81356001600160401b0381111561104e57600080fd5b61105a84828501610de4565b949350505050565b6000806040838503121561107557600080fd5b82356001600160401b038082111561108c57600080fd5b61109886838701610e3f565b935060208501359150808211156110ae57600080fd5b50610dda85828601610ebe565b6000602082840312156110cd57600080fd5b5035919050565b6020808252825182820181905260009190848201906040850190845b818110156111155783516001600160a01b0316835292840192918401916001016110f0565b50909695505050505050565b6001600160a01b0381168114610b0757600080fd5b6000806040838503121561114957600080fd5b823561115481611121565b946020939093013593505050565b6000815480845260208085019450836000528060002060005b838110156111a05781546001600160a01b03168752958201956001918201910161117b565b509495945050505050565b60005b838110156111c65781810151838201526020016111ae565b50506000910152565b600081518084526111e78160208601602086016111ab565b601f01601f19169290920160200192915050565b805182526001600160401b036020820151166020830152600060408201516080604085015261122d60808501826111cf565b90506060830151848203606086015261124682826111cf565b95945050505050565b600081518084526020808501808196508360051b8101915082860160005b858110156112975782840389526112858483516111cf565b9885019893509084019060010161126d565b5091979650505050505050565b6080815260006112b76080830187611162565b82810360208401526112c981876111fb565b905082810360408401526112dd818661124f565b91505082606083015295945050505050565b60408152600061130260408301856111fb565b905060018060a01b03831660208301529392505050565b600081518084526020808501808196508360051b8101915082860160005b8581101561129757828403895261134f8483516111fb565b98850198935090840190600101611337565b600081518084526020808501808196508360051b8101915082860160005b8581101561129757828403895261139784835161124f565b9885019893509084019060010161137f565b6060815260006113bc6060830186611162565b82810360208401526113ce8186611319565b905082810360408401526113e28185611361565b9695505050505050565b600081518084526020808501945080840160005b838110156111a057815187529582019590820190600101611400565b60608152600061142f60608301866113ec565b82810360208401526114418186611319565b91505060018060a01b0383166040830152949350505050565b6004811061147857634e487b7160e01b600052602160045260246000fd5b9052565b60e08152600061148f60e083018a611162565b82810360208401526114a1818a6111fb565b905082810360408401526114b5818961124f565b606084018890526001600160a01b038781166080860152861660a085015291506114e4905060c083018461145a565b98975050505050505050565b83815260606020820152600061150960608301856111fb565b905060018060a01b0383166040830152949350505050565b602081526000610b3460208301846113ec565b6040815260006113026040830185611319565b60c08152600061155a60c0830189611162565b828103602084015261156c8189611319565b905082810360408401526115808188611361565b6001600160a01b0387811660608601528616608085015291506115a8905060a083018461145a565b979650505050505050565b80516115be81611121565b919050565b600082601f8301126115d457600080fd5b815160206115e4610bef83610cd4565b82815260059290921b8401810191818101908684111561160357600080fd5b8286015b84811015610d7657805161161a81611121565b8352918301918301611607565b805180151581146115be57600080fd5b600082601f83011261164857600080fd5b8151611656610bef82610ba9565b81815284602083860101111561166b57600080fd5b61105a8260208301602087016111ab565b60006020828403121561168e57600080fd5b81516001600160401b03808211156116a557600080fd5b9083019060e082860312156116b957600080fd5b6116c1610b51565b6116ca836115b3565b81526116d8602084016115b3565b60208201526040830151828111156116ef57600080fd5b6116fb878286016115c3565b60408301525061170d60608401611627565b606082015260808301518281111561172457600080fd5b61173087828601611637565b60808301525060a08301518281111561174857600080fd5b61175487828601611637565b60a08301525060c08301518281111561176c57600080fd5b61177887828601611637565b60c0830152509594505050505056fea2646970667358221220879f6dc3abd910f4955963537d375eb0175db0f0e39e800ec340d4b2ec94eeda64736f6c63430008150033a2646970667358221220462073eb7efb7d5c1e8474fbb4539b17081e9ebe3601b394685e18e51b1e183764736f6c63430008150033",
    "linkReferences": {}
  },
  "methodIdentifiers": {
    "deployDefaultPortal(address[],string,string,bool,string)": "f0d124ec",
    "getIsTestnet()": "e569aabd",
    "getPortalByAddress(address)": "c0fbc748",
    "getPortalsCount()": "45592640",
    "initialize()": "8129fc1c",
    "isAllowlisted(address)": "05a3b809",
    "isIssuer(address)": "877b9a67",
    "isRegistered(address)": "c3c5a547",
    "owner()": "8da5cb5b",
    "register(address,string,string,bool,string)": "28c0ddf5",
    "removeIssuer(address)": "47bc7093",
    "renounceOwnership()": "715018a6",
    "revoke(address)": "74a8f103",
    "router()": "f887ea40",
    "setIsTestnet(bool)": "2246f111",
    "setIssuer(address)": "55cc4e57",
    "transferOwnership(address)": "f2fde38b",
    "updateRouter(address)": "c851cc32"
  },
  "id": 50
}