{
  "abi": [
    {
      "type": "constructor",
      "inputs": [],
      "stateMutability": "nonpayable"
    },
    {
      "type": "function",
      "name": "attest",
      "inputs": [
        {
          "name": "attestationPayload",
          "type": "tuple",
          "internalType": "struct AttestationPayload",
          "components": [
            {
              "name": "schemaId",
              "type": "bytes32",
              "internalType": "bytes32"
            },
            {
              "name": "expirationDate",
              "type": "uint64",
              "internalType": "uint64"
            },
            {
              "name": "subject",
              "type": "bytes",
              "internalType": "bytes"
            },
            {
              "name": "attestationData",
              "type": "bytes",
              "internalType": "bytes"
            }
          ]
        },
        {
          "name": "attester",
          "type": "address",
          "internalType": "address"
        }
      ],
      "outputs": [],
      "stateMutability": "nonpayable"
    },
    {
      "type": "function",
      "name": "balanceOf",
      "inputs": [
        {
          "name": "account",
          "type": "address",
          "internalType": "address"
        },
        {
          "name": "id",
          "type": "uint256",
          "internalType": "uint256"
        }
      ],
      "outputs": [
        {
          "name": "",
          "type": "uint256",
          "internalType": "uint256"
        }
      ],
      "stateMutability": "view"
    },
    {
      "type": "function",
      "name": "balanceOfBatch",
      "inputs": [
        {
          "name": "accounts",
          "type": "address[]",
          "internalType": "address[]"
        },
        {
          "name": "ids",
          "type": "uint256[]",
          "internalType": "uint256[]"
        }
      ],
      "outputs": [
        {
          "name": "",
          "type": "uint256[]",
          "internalType": "uint256[]"
        }
      ],
      "stateMutability": "view"
    },
    {
      "type": "function",
      "name": "bulkAttest",
      "inputs": [
        {
          "name": "attestationsPayloads",
          "type": "tuple[]",
          "internalType": "struct AttestationPayload[]",
          "components": [
            {
              "name": "schemaId",
              "type": "bytes32",
              "internalType": "bytes32"
            },
            {
              "name": "expirationDate",
              "type": "uint64",
              "internalType": "uint64"
            },
            {
              "name": "subject",
              "type": "bytes",
              "internalType": "bytes"
            },
            {
              "name": "attestationData",
              "type": "bytes",
              "internalType": "bytes"
            }
          ]
        },
        {
          "name": "attester",
          "type": "address",
          "internalType": "address"
        }
      ],
      "outputs": [],
      "stateMutability": "nonpayable"
    },
    {
      "type": "function",
      "name": "bulkReplace",
      "inputs": [
        {
          "name": "attestationIds",
          "type": "bytes32[]",
          "internalType": "bytes32[]"
        },
        {
          "name": "attestationPayloads",
          "type": "tuple[]",
          "internalType": "struct AttestationPayload[]",
          "components": [
            {
              "name": "schemaId",
              "type": "bytes32",
              "internalType": "bytes32"
            },
            {
              "name": "expirationDate",
              "type": "uint64",
              "internalType": "uint64"
            },
            {
              "name": "subject",
              "type": "bytes",
              "internalType": "bytes"
            },
            {
              "name": "attestationData",
              "type": "bytes",
              "internalType": "bytes"
            }
          ]
        },
        {
          "name": "attester",
          "type": "address",
          "internalType": "address"
        }
      ],
      "outputs": [],
      "stateMutability": "nonpayable"
    },
    {
      "type": "function",
      "name": "bulkRevoke",
      "inputs": [
        {
          "name": "attestationIds",
          "type": "bytes32[]",
          "internalType": "bytes32[]"
        }
      ],
      "outputs": [],
      "stateMutability": "nonpayable"
    },
    {
      "type": "function",
      "name": "getAttestation",
      "inputs": [
        {
          "name": "attestationId",
          "type": "bytes32",
          "internalType": "bytes32"
        }
      ],
      "outputs": [
        {
          "name": "",
          "type": "tuple",
          "internalType": "struct Attestation",
          "components": [
            {
              "name": "attestationId",
              "type": "bytes32",
              "internalType": "bytes32"
            },
            {
              "name": "schemaId",
              "type": "bytes32",
              "internalType": "bytes32"
            },
            {
              "name": "replacedBy",
              "type": "bytes32",
              "internalType": "bytes32"
            },
            {
              "name": "attester",
              "type": "address",
              "internalType": "address"
            },
            {
              "name": "portal",
              "type": "address",
              "internalType": "address"
            },
            {
              "name": "attestedDate",
              "type": "uint64",
              "internalType": "uint64"
            },
            {
              "name": "expirationDate",
              "type": "uint64",
              "internalType": "uint64"
            },
            {
              "name": "revocationDate",
              "type": "uint64",
              "internalType": "uint64"
            },
            {
              "name": "version",
              "type": "uint16",
              "internalType": "uint16"
            },
            {
              "name": "revoked",
              "type": "bool",
              "internalType": "bool"
            },
            {
              "name": "subject",
              "type": "bytes",
              "internalType": "bytes"
            },
            {
              "name": "attestationData",
              "type": "bytes",
              "internalType": "bytes"
            }
          ]
        }
      ],
      "stateMutability": "view"
    },
    {
      "type": "function",
      "name": "getAttestationIdCounter",
      "inputs": [],
      "outputs": [
        {
          "name": "",
          "type": "uint32",
          "internalType": "uint32"
        }
      ],
      "stateMutability": "view"
    },
    {
      "type": "function",
      "name": "getChainPrefix",
      "inputs": [],
      "outputs": [
        {
          "name": "",
          "type": "uint256",
          "internalType": "uint256"
        }
      ],
      "stateMutability": "view"
    },
    {
      "type": "function",
      "name": "getVersionNumber",
      "inputs": [],
      "outputs": [
        {
          "name": "",
          "type": "uint16",
          "internalType": "uint16"
        }
      ],
      "stateMutability": "view"
    },
    {
      "type": "function",
      "name": "incrementVersionNumber",
      "inputs": [],
      "outputs": [
        {
          "name": "",
          "type": "uint16",
          "internalType": "uint16"
        }
      ],
      "stateMutability": "nonpayable"
    },
    {
      "type": "function",
      "name": "initialize",
      "inputs": [],
      "outputs": [],
      "stateMutability": "nonpayable"
    },
    {
      "type": "function",
      "name": "isRegistered",
      "inputs": [
        {
          "name": "attestationId",
          "type": "bytes32",
          "internalType": "bytes32"
        }
      ],
      "outputs": [
        {
          "name": "",
          "type": "bool",
          "internalType": "bool"
        }
      ],
      "stateMutability": "view"
    },
    {
      "type": "function",
      "name": "isRevocable",
      "inputs": [
        {
          "name": "portalId",
          "type": "address",
          "internalType": "address"
        }
      ],
      "outputs": [
        {
          "name": "",
          "type": "bool",
          "internalType": "bool"
        }
      ],
      "stateMutability": "view"
    },
    {
      "type": "function",
      "name": "massImport",
      "inputs": [
        {
          "name": "attestationsPayloads",
          "type": "tuple[]",
          "internalType": "struct AttestationPayload[]",
          "components": [
            {
              "name": "schemaId",
              "type": "bytes32",
              "internalType": "bytes32"
            },
            {
              "name": "expirationDate",
              "type": "uint64",
              "internalType": "uint64"
            },
            {
              "name": "subject",
              "type": "bytes",
              "internalType": "bytes"
            },
            {
              "name": "attestationData",
              "type": "bytes",
              "internalType": "bytes"
            }
          ]
        },
        {
          "name": "portal",
          "type": "address",
          "internalType": "address"
        }
      ],
      "outputs": [],
      "stateMutability": "nonpayable"
    },
    {
      "type": "function",
      "name": "owner",
      "inputs": [],
      "outputs": [
        {
          "name": "",
          "type": "address",
          "internalType": "address"
        }
      ],
      "stateMutability": "view"
    },
    {
      "type": "function",
      "name": "renounceOwnership",
      "inputs": [],
      "outputs": [],
      "stateMutability": "nonpayable"
    },
    {
      "type": "function",
      "name": "replace",
      "inputs": [
        {
          "name": "attestationId",
          "type": "bytes32",
          "internalType": "bytes32"
        },
        {
          "name": "attestationPayload",
          "type": "tuple",
          "internalType": "struct AttestationPayload",
          "components": [
            {
              "name": "schemaId",
              "type": "bytes32",
              "internalType": "bytes32"
            },
            {
              "name": "expirationDate",
              "type": "uint64",
              "internalType": "uint64"
            },
            {
              "name": "subject",
              "type": "bytes",
              "internalType": "bytes"
            },
            {
              "name": "attestationData",
              "type": "bytes",
              "internalType": "bytes"
            }
          ]
        },
        {
          "name": "attester",
          "type": "address",
          "internalType": "address"
        }
      ],
      "outputs": [],
      "stateMutability": "nonpayable"
    },
    {
      "type": "function",
      "name": "revoke",
      "inputs": [
        {
          "name": "attestationId",
          "type": "bytes32",
          "internalType": "bytes32"
        }
      ],
      "outputs": [],
      "stateMutability": "nonpayable"
    },
    {
      "type": "function",
      "name": "router",
      "inputs": [],
      "outputs": [
        {
          "name": "",
          "type": "address",
          "internalType": "contract IRouter"
        }
      ],
      "stateMutability": "view"
    },
    {
      "type": "function",
      "name": "transferOwnership",
      "inputs": [
        {
          "name": "newOwner",
          "type": "address",
          "internalType": "address"
        }
      ],
      "outputs": [],
      "stateMutability": "nonpayable"
    },
    {
      "type": "function",
      "name": "updateChainPrefix",
      "inputs": [
        {
          "name": "_chainPrefix",
          "type": "uint256",
          "internalType": "uint256"
        }
      ],
      "outputs": [],
      "stateMutability": "nonpayable"
    },
    {
      "type": "function",
      "name": "updateRouter",
      "inputs": [
        {
          "name": "_router",
          "type": "address",
          "internalType": "address"
        }
      ],
      "outputs": [],
      "stateMutability": "nonpayable"
    },
    {
      "type": "event",
      "name": "AttestationRegistered",
      "inputs": [
        {
          "name": "attestationId",
          "type": "bytes32",
          "indexed": true,
          "internalType": "bytes32"
        }
      ],
      "anonymous": false
    },
    {
      "type": "event",
      "name": "AttestationReplaced",
      "inputs": [
        {
          "name": "attestationId",
          "type": "bytes32",
          "indexed": false,
          "internalType": "bytes32"
        },
        {
          "name": "replacedBy",
          "type": "bytes32",
          "indexed": false,
          "internalType": "bytes32"
        }
      ],
      "anonymous": false
    },
    {
      "type": "event",
      "name": "AttestationRevoked",
      "inputs": [
        {
          "name": "attestationId",
          "type": "bytes32",
          "indexed": false,
          "internalType": "bytes32"
        }
      ],
      "anonymous": false
    },
    {
      "type": "event",
      "name": "ChainPrefixUpdated",
      "inputs": [
        {
          "name": "chainPrefix",
          "type": "uint256",
          "indexed": false,
          "internalType": "uint256"
        }
      ],
      "anonymous": false
    },
    {
      "type": "event",
      "name": "Initialized",
      "inputs": [
        {
          "name": "version",
          "type": "uint8",
          "indexed": false,
          "internalType": "uint8"
        }
      ],
      "anonymous": false
    },
    {
      "type": "event",
      "name": "OwnershipTransferred",
      "inputs": [
        {
          "name": "previousOwner",
          "type": "address",
          "indexed": true,
          "internalType": "address"
        },
        {
          "name": "newOwner",
          "type": "address",
          "indexed": true,
          "internalType": "address"
        }
      ],
      "anonymous": false
    },
    {
      "type": "event",
      "name": "RouterUpdated",
      "inputs": [
        {
          "name": "routerAddress",
          "type": "address",
          "indexed": false,
          "internalType": "address"
        }
      ],
      "anonymous": false
    },
    {
      "type": "event",
      "name": "VersionUpdated",
      "inputs": [
        {
          "name": "version",
          "type": "uint16",
          "indexed": false,
          "internalType": "uint16"
        }
      ],
      "anonymous": false
    },
    {
      "type": "error",
      "name": "AlreadyRevoked",
      "inputs": []
    },
    {
      "type": "error",
      "name": "ArrayLengthMismatch",
      "inputs": []
    },
    {
      "type": "error",
      "name": "AttestationDataFieldEmpty",
      "inputs": []
    },
    {
      "type": "error",
      "name": "AttestationNotAttested",
      "inputs": []
    },
    {
      "type": "error",
      "name": "AttestationNotRevocable",
      "inputs": []
    },
    {
      "type": "error",
      "name": "AttestationSubjectFieldEmpty",
      "inputs": []
    },
    {
      "type": "error",
      "name": "OnlyAttestingPortal",
      "inputs": []
    },
    {
      "type": "error",
      "name": "OnlyPortal",
      "inputs": []
    },
    {
      "type": "error",
      "name": "RouterInvalid",
      "inputs": []
    },
    {
      "type": "error",
      "name": "SchemaNotRegistered",
      "inputs": []
    }
  ],
  "bytecode": {
    "object": "0x60806040523480156200001157600080fd5b506200001c62000022565b620000e3565b600054610100900460ff16156200008f5760405162461bcd60e51b815260206004820152602760248201527f496e697469616c697a61626c653a20636f6e747261637420697320696e697469604482015266616c697a696e6760c81b606482015260840160405180910390fd5b60005460ff90811614620000e1576000805460ff191660ff9081179091556040519081527f7f26b83ff96e1f2b6a682f133852f6798a09c465da95921460cefb38474024989060200160405180910390a15b565b61256d80620000f36000396000f3fe608060405234801561001057600080fd5b506004361061014c5760003560e01c80638f0d7538116100c3578063d0fc9f831161007c578063d0fc9f83146102e6578063d46f6a2c146102f9578063f20c14161461030c578063f2fde38b14610331578063f541295c14610344578063f887ea401461034c57600080fd5b80638f0d7538146102675780638ffa736b1461027a578063a3112a641461028d578063a8e2812d146102ad578063b75c7dc6146102c0578063c851cc32146102d357600080fd5b806354255be01161011557806354255be0146101f957806362fa3d451461020c5780636ec4d4cb1461021f578063715018a6146102325780638129fc1c1461023a5780638da5cb5b1461024257600080fd5b8062fdd58e1461015157806327258b22146101775780634ada8076146101a95780634cbe11cb146101be5780634e1273f4146101d9575b600080fd5b61016461015f366004611a21565b61035f565b6040519081526020015b60405180910390f35b610199610185366004611a4d565b600090815260666020526040902054151590565b604051901515815260200161016e565b6101bc6101b7366004611af7565b61061a565b005b6101c6610654565b60405161ffff909116815260200161016e565b6101ec6101e7366004611bf2565b6106e6565b60405161016e9190611cb3565b606554600160a01b900461ffff166101c6565b6101bc61021a366004611d0f565b6107c6565b6101bc61022d366004611dab565b610cfe565b6101bc610d7f565b6101bc610d93565b6033546001600160a01b03165b6040516001600160a01b03909116815260200161016e565b6101bc610275366004611a4d565b610eaa565b6101bc610288366004611e2e565b610ee7565b6102a061029b366004611a4d565b610f6d565b60405161016e9190611ed8565b6101bc6102bb366004611fe1565b6111d9565b6101bc6102ce366004611a4d565b61121f565b6101bc6102e136600461202c565b611379565b6101bc6102f4366004611fe1565b6113f6565b61019961030736600461202c565b61175f565b606554600160b01b900463ffffffff1660405163ffffffff909116815260200161016e565b6101bc61033f36600461202c565b611856565b606754610164565b60655461024f906001600160a01b031681565b60008061036b836118cc565b60008181526066602090815260408083208151610180810183528154815260018201549381019390935260028101549183019190915260038101546001600160a01b03908116606084015260048201549081166080840152600160a01b90046001600160401b0390811660a0840152600582015480821660c0850152600160401b810490911660e0840152600160801b810461ffff16610100840152600160901b900460ff1615156101208301526006810180549495509293919290916101408401919061043890612050565b80601f016020809104026020016040519081016040528092919081815260200182805461046490612050565b80156104b15780601f10610486576101008083540402835291602001916104b1565b820191906000526020600020905b81548152906001019060200180831161049457829003601f168201915b505050505081526020016007820180546104ca90612050565b80601f01602080910402602001604051908101604052809291908181526020018280546104f690612050565b80156105435780601f1061051857610100808354040283529160200191610543565b820191906000526020600020905b81548152906001019060200180831161052657829003601f168201915b50505050508152505090506014816101400151511180156105985750604080516001600160a01b0387166020820152016040516020818303038152906040528051906020012081610140015180519060200120145b156105a857600192505050610614565b8061014001515160141480156105fd57506040516bffffffffffffffffffffffff19606087901b1660208201526034016040516020818303038152906040528051906020012081610140015180519060200120145b1561060d57600192505050610614565b6000925050505b92915050565b60005b81518110156106505761064882828151811061063b5761063b612084565b602002602001015161121f565b60010161061d565b5050565b600061065e611906565b6065805460149061067990600160a01b900461ffff166120b0565b82546101009290920a61ffff818102199093169183160217909155606554604051600160a01b90910490911681527f5891971a9a7b7a3d45b4bec8fe5ec184b79ca6d26177fbbddad04baa14fdc72c9060200160405180910390a150606554600160a01b900461ffff1690565b6060815183511461070a5760405163512509d360e11b815260040160405180910390fd5b600083516001600160401b0381111561072557610725611a66565b60405190808252806020026020018201604052801561074e578160200160208202803683370190505b50905060005b84518110156107be5761079985828151811061077257610772612084565b602002602001015185838151811061078c5761078c612084565b602002602001015161035f565b8282815181106107ab576107ab612084565b6020908102919091010152600101610754565b509392505050565b336000606560009054906101000a90046001600160a01b03166001600160a01b031663b7dac9766040518163ffffffff1660e01b8152600401602060405180830381865afa15801561081c573d6000803e3d6000fd5b505050506040513d601f19601f8201168201806040525081019061084091906120e1565b60405163c3c5a54760e01b81526001600160a01b038481166004830152919091169063c3c5a54790602401602060405180830381865afa158015610888573d6000803e3d6000fd5b505050506040513d601f19601f820116820180604052508101906108ac919061210e565b9050806108cc57604051630f46c81b60e21b815260040160405180910390fd5b60655460408051631e216b9960e31b815290516000926001600160a01b03169163f10b5cc89160048083019260209291908290030181865afa158015610916573d6000803e3d6000fd5b505050506040513d601f19601f8201168201806040525081019061093a91906120e1565b604051631392c59160e11b8152863560048201529091506001600160a01b038216906327258b2290602401602060405180830381865afa158015610982573d6000803e3d6000fd5b505050506040513d601f19601f820116820180604052508101906109a6919061210e565b6109c357604051638cc004a960e01b815260040160405180910390fd5b6109d06040860186612129565b90506000036109f257604051636367e41160e01b815260040160405180910390fd5b6109ff6060860186612129565b9050600003610a2157604051634e46e0b360e01b815260040160405180910390fd5b60658054600160b01b900463ffffffff16906016610a3e8361216f565b91906101000a81548163ffffffff021916908363ffffffff160217905550506000610a80606560169054906101000a900463ffffffff1663ffffffff166118cc565b9050604051806101800160405280828152602001876000013581526020016000801b8152602001866001600160a01b03168152602001336001600160a01b03168152602001426001600160401b03168152602001876020016020810190610ae79190612188565b6001600160401b03168152600060208201819052606554600160a01b900461ffff166040808401919091526060830191909152608090910190610b2c90890189612129565b8080601f016020809104026020016040519081016040528093929190818152602001838380828437600092019190915250505090825250602001610b736060890189612129565b8080601f0160208091040260200160405190810160405280939291908181526020018383808284376000920182905250939094525050838152606660209081526040918290208451815590840151600182015590830151600282015560608301516003820180546001600160a01b039283166001600160a01b0319909116179055608084015160048301805460a08701516001600160401b03908116600160a01b026001600160e01b0319909216939094169290921791909117905560c084015160058301805460e08701516101008801516101208901511515600160901b0260ff60901b1961ffff909216600160801b029190911662ffffff60801b19928716600160401b026001600160801b031990941695909616949094179190911716929092171790556101408301519091506006820190610cb290826121fc565b506101608201516007820190610cc890826121fc565b50506040518291507ffe10586889e06530420fe4a0d86aa4f7afc3c9dc84b0c77b731a9615496ef18a90600090a2505050505050565b838214610d1e5760405163512509d360e11b815260040160405180910390fd5b60005b84811015610d7757610d6f868683818110610d3e57610d3e612084565b90506020020135858584818110610d5757610d57612084565b9050602002810190610d6991906122bb565b84610ee7565b600101610d21565b505050505050565b610d87611906565b610d916000611960565b565b600054610100900460ff1615808015610db35750600054600160ff909116105b80610dcd5750303b158015610dcd575060005460ff166001145b610e355760405162461bcd60e51b815260206004820152602e60248201527f496e697469616c697a61626c653a20636f6e747261637420697320616c72656160448201526d191e481a5b9a5d1a585b1a5e995960921b60648201526084015b60405180910390fd5b6000805460ff191660011790558015610e58576000805461ff0019166101001790555b610e606119b2565b8015610ea7576000805461ff0019169055604051600181527f7f26b83ff96e1f2b6a682f133852f6798a09c465da95921460cefb3847402498906020015b60405180910390a15b50565b610eb2611906565b60678190556040518181527f30c6ebeb3a852fb978fefd449f4aaaa91f79135f26dd7593ad72add893c68e7d90602001610e9e565b610ef182826107c6565b610efa8361121f565b606554600090610f1690600160b01b900463ffffffff166118cc565b60008581526066602090815260409182902060020183905581518781529081018390529192507f77d674474bd19340e11693fde02ab981634002a50709bcaf013916b59e40c07d910160405180910390a150505050565b60408051610180810182526000808252602080830182905282840182905260608084018390526080840183905260a0840183905260c0840183905260e08401839052610100840183905261012084018390526101408401819052610160840152848252606690529190912054610ff65760405163038d7caf60e21b815260040160405180910390fd5b6000828152606660209081526040918290208251610180810184528154815260018201549281019290925260028101549282019290925260038201546001600160a01b03908116606083015260048301549081166080830152600160a01b90046001600160401b0390811660a0830152600583015480821660c0840152600160401b810490911660e0830152600160801b810461ffff16610100830152600160901b900460ff161515610120820152600682018054919291610140840191906110be90612050565b80601f01602080910402602001604051908101604052809291908181526020018280546110ea90612050565b80156111375780601f1061110c57610100808354040283529160200191611137565b820191906000526020600020905b81548152906001019060200180831161111a57829003601f168201915b5050505050815260200160078201805461115090612050565b80601f016020809104026020016040519081016040528092919081815260200182805461117c90612050565b80156111c95780601f1061119e576101008083540402835291602001916111c9565b820191906000526020600020905b8154815290600101906020018083116111ac57829003601f168201915b5050505050815250509050919050565b60005b82811015611219576112118484838181106111f9576111f9612084565b905060200281019061120b91906122bb565b836107c6565b6001016111dc565b50505050565b60008181526066602052604090205461124b5760405163038d7caf60e21b815260040160405180910390fd5b600081815260666020526040902060050154600160901b900460ff16156112855760405163905e710760e01b815260040160405180910390fd5b6000818152606660205260409020600401546001600160a01b031633146112c25760405160016246018d60e01b0319815260040160405180910390fd5b6000818152606660205260409020600401546112e6906001600160a01b031661175f565b61130357604051632e7eadc560e11b815260040160405180910390fd5b6000818152606660205260409081902060050180546001600160401b034216600160401b0272ff0000ffffffffffffffff00000000000000001990911617600160901b179055517f04bed256ad23fe17d61d9248ee108825bf3b1d04527fee36f0ee2af633fc145290610e9e9083815260200190565b611381611906565b6001600160a01b0381166113a8576040516324a2034760e11b815260040160405180910390fd5b606580546001600160a01b0319166001600160a01b0383169081179091556040519081527f7aed1d3e8155a07ccf395e44ea3109a0e2d6c9b29bbbe9f142d9790596f4dc8090602001610e9e565b6113fe611906565b60005b828110156112195760658054600160b01b900463ffffffff169060166114268361216f565b91906101000a81548163ffffffff021916908363ffffffff160217905550506000611468606560169054906101000a900463ffffffff1663ffffffff166118cc565b905060405180610180016040528082815260200186868581811061148e5761148e612084565b90506020028101906114a091906122bb565b358152600060208201523360408201526001600160a01b03851660608201526001600160401b034216608082015260a0018686858181106114e3576114e3612084565b90506020028101906114f591906122bb565b611506906040810190602001612188565b6001600160401b03168152600060208201819052606554600160a01b900461ffff166040830152606082015260800186868581811061154757611547612084565b905060200281019061155991906122bb565b611567906040810190612129565b8080601f0160208091040260200160405190810160405280939291908181526020018383808284376000920191909152505050908252506020018686858181106115b3576115b3612084565b90506020028101906115c591906122bb565b6115d3906060810190612129565b8080601f0160208091040260200160405190810160405280939291908181526020018383808284376000920182905250939094525050838152606660209081526040918290208451815590840151600182015590830151600282015560608301516003820180546001600160a01b039283166001600160a01b0319909116179055608084015160048301805460a08701516001600160401b03908116600160a01b026001600160e01b0319909216939094169290921791909117905560c084015160058301805460e08701516101008801516101208901511515600160901b0260ff60901b1961ffff909216600160801b029190911662ffffff60801b19928716600160401b026001600160801b03199094169590961694909417919091171692909217179055610140830151909150600682019061171290826121fc565b50610160820151600782019061172890826121fc565b50506040518291507ffe10586889e06530420fe4a0d86aa4f7afc3c9dc84b0c77b731a9615496ef18a90600090a250600101611401565b600080606560009054906101000a90046001600160a01b03166001600160a01b031663b7dac9766040518163ffffffff1660e01b8152600401602060405180830381865afa1580156117b5573d6000803e3d6000fd5b505050506040513d601f19601f820116820180604052508101906117d991906120e1565b60405163181f78e960e31b81526001600160a01b0385811660048301529192509082169063c0fbc74890602401600060405180830381865afa158015611823573d6000803e3d6000fd5b505050506040513d6000823e601f3d908101601f1916820160405261184b91908101906123aa565b606001519392505050565b61185e611906565b6001600160a01b0381166118c35760405162461bcd60e51b815260206004820152602660248201527f4f776e61626c653a206e6577206f776e657220697320746865207a65726f206160448201526564647265737360d01b6064820152608401610e2c565b610ea781611960565b6000816067546118dc91906124b5565b6040516020016118ee91815260200190565b604051602081830303815290604052610614906124c8565b6033546001600160a01b03163314610d915760405162461bcd60e51b815260206004820181905260248201527f4f776e61626c653a2063616c6c6572206973206e6f7420746865206f776e65726044820152606401610e2c565b603380546001600160a01b038381166001600160a01b0319831681179093556040519116919082907f8be0079c531659141344cd1fd0a4f28419497f9722a3daafe3b4186f6b6457e090600090a35050565b600054610100900460ff166119d95760405162461bcd60e51b8152600401610e2c906124ec565b610d91600054610100900460ff16611a035760405162461bcd60e51b8152600401610e2c906124ec565b610d9133611960565b6001600160a01b0381168114610ea757600080fd5b60008060408385031215611a3457600080fd5b8235611a3f81611a0c565b946020939093013593505050565b600060208284031215611a5f57600080fd5b5035919050565b634e487b7160e01b600052604160045260246000fd5b60405160e081016001600160401b0381118282101715611a9e57611a9e611a66565b60405290565b604051601f8201601f191681016001600160401b0381118282101715611acc57611acc611a66565b604052919050565b60006001600160401b03821115611aed57611aed611a66565b5060051b60200190565b60006020808385031215611b0a57600080fd5b82356001600160401b03811115611b2057600080fd5b8301601f81018513611b3157600080fd5b8035611b44611b3f82611ad4565b611aa4565b81815260059190911b82018301908381019087831115611b6357600080fd5b928401925b82841015611b8157833582529284019290840190611b68565b979650505050505050565b600082601f830112611b9d57600080fd5b81356020611bad611b3f83611ad4565b82815260059290921b84018101918181019086841115611bcc57600080fd5b8286015b84811015611be75780358352918301918301611bd0565b509695505050505050565b60008060408385031215611c0557600080fd5b82356001600160401b0380821115611c1c57600080fd5b818501915085601f830112611c3057600080fd5b81356020611c40611b3f83611ad4565b82815260059290921b84018101918181019089841115611c5f57600080fd5b948201945b83861015611c86578535611c7781611a0c565b82529482019490820190611c64565b96505086013592505080821115611c9c57600080fd5b50611ca985828601611b8c565b9150509250929050565b6020808252825182820181905260009190848201906040850190845b81811015611ceb57835183529284019291840191600101611ccf565b50909695505050505050565b600060808284031215611d0957600080fd5b50919050565b60008060408385031215611d2257600080fd5b82356001600160401b03811115611d3857600080fd5b611d4485828601611cf7565b9250506020830135611d5581611a0c565b809150509250929050565b60008083601f840112611d7257600080fd5b5081356001600160401b03811115611d8957600080fd5b6020830191508360208260051b8501011115611da457600080fd5b9250929050565b600080600080600060608688031215611dc357600080fd5b85356001600160401b0380821115611dda57600080fd5b611de689838a01611d60565b90975095506020880135915080821115611dff57600080fd5b50611e0c88828901611d60565b9094509250506040860135611e2081611a0c565b809150509295509295909350565b600080600060608486031215611e4357600080fd5b8335925060208401356001600160401b03811115611e6057600080fd5b611e6c86828701611cf7565b9250506040840135611e7d81611a0c565b809150509250925092565b60005b83811015611ea3578181015183820152602001611e8b565b50506000910152565b60008151808452611ec4816020860160208601611e88565b601f01601f19169290920160200192915050565b6020815281516020820152602082015160408201526040820151606082015260006060830151611f1360808401826001600160a01b03169052565b5060808301516001600160a01b03811660a08401525060a08301516001600160401b03811660c08401525060c08301516001600160401b03811660e08401525060e0830151610100611f6f818501836001600160401b03169052565b8401519050610120611f868482018361ffff169052565b8401519050610140611f9b8482018315159052565b808501519150506101806101608181860152611fbb6101a0860184611eac565b90860151858203601f190183870152909250611fd78382611eac565b9695505050505050565b600080600060408486031215611ff657600080fd5b83356001600160401b0381111561200c57600080fd5b61201886828701611d60565b9094509250506020840135611e7d81611a0c565b60006020828403121561203e57600080fd5b813561204981611a0c565b9392505050565b600181811c9082168061206457607f821691505b602082108103611d0957634e487b7160e01b600052602260045260246000fd5b634e487b7160e01b600052603260045260246000fd5b634e487b7160e01b600052601160045260246000fd5b600061ffff8083168181036120c7576120c761209a565b6001019392505050565b80516120dc81611a0c565b919050565b6000602082840312156120f357600080fd5b815161204981611a0c565b805180151581146120dc57600080fd5b60006020828403121561212057600080fd5b612049826120fe565b6000808335601e1984360301811261214057600080fd5b8301803591506001600160401b0382111561215a57600080fd5b602001915036819003821315611da457600080fd5b600063ffffffff8083168181036120c7576120c761209a565b60006020828403121561219a57600080fd5b81356001600160401b038116811461204957600080fd5b601f8211156121f757600081815260208120601f850160051c810160208610156121d85750805b601f850160051c820191505b81811015610d77578281556001016121e4565b505050565b81516001600160401b0381111561221557612215611a66565b612229816122238454612050565b846121b1565b602080601f83116001811461225e57600084156122465750858301515b600019600386901b1c1916600185901b178555610d77565b600085815260208120601f198616915b8281101561228d5788860151825594840194600190910190840161226e565b50858210156122ab5787850151600019600388901b60f8161c191681555b5050505050600190811b01905550565b60008235607e198336030181126122d157600080fd5b9190910192915050565b600082601f8301126122ec57600080fd5b815160206122fc611b3f83611ad4565b82815260059290921b8401810191818101908684111561231b57600080fd5b8286015b84811015611be757805161233281611a0c565b835291830191830161231f565b600082601f83011261235057600080fd5b81516001600160401b0381111561236957612369611a66565b61237c601f8201601f1916602001611aa4565b81815284602083860101111561239157600080fd5b6123a2826020830160208701611e88565b949350505050565b6000602082840312156123bc57600080fd5b81516001600160401b03808211156123d357600080fd5b9083019060e082860312156123e757600080fd5b6123ef611a7c565b6123f8836120d1565b8152612406602084016120d1565b602082015260408301518281111561241d57600080fd5b612429878286016122db565b60408301525061243b606084016120fe565b606082015260808301518281111561245257600080fd5b61245e8782860161233f565b60808301525060a08301518281111561247657600080fd5b6124828782860161233f565b60a08301525060c08301518281111561249a57600080fd5b6124a68782860161233f565b60c08301525095945050505050565b808201808211156106145761061461209a565b80516020808301519190811015611d095760001960209190910360031b1b16919050565b6020808252602b908201527f496e697469616c697a61626c653a20636f6e7472616374206973206e6f74206960408201526a6e697469616c697a696e6760a81b60608201526080019056fea2646970667358221220d2fb40c654ca9b2b025bc2945d83cce9a9d152323cfad4635d3e335b7e7cdda964736f6c63430008150033",
    "linkReferences": {}
  },
  "methodIdentifiers": {
    "attest((bytes32,uint64,bytes,bytes),address)": "62fa3d45",
    "balanceOf(address,uint256)": "00fdd58e",
    "balanceOfBatch(address[],uint256[])": "4e1273f4",
    "bulkAttest((bytes32,uint64,bytes,bytes)[],address)": "a8e2812d",
    "bulkReplace(bytes32[],(bytes32,uint64,bytes,bytes)[],address)": "6ec4d4cb",
    "bulkRevoke(bytes32[])": "4ada8076",
    "getAttestation(bytes32)": "a3112a64",
    "getAttestationIdCounter()": "f20c1416",
    "getChainPrefix()": "f541295c",
    "getVersionNumber()": "54255be0",
    "incrementVersionNumber()": "4cbe11cb",
    "initialize()": "8129fc1c",
    "isRegistered(bytes32)": "27258b22",
    "isRevocable(address)": "d46f6a2c",
    "massImport((bytes32,uint64,bytes,bytes)[],address)": "d0fc9f83",
    "owner()": "8da5cb5b",
    "renounceOwnership()": "715018a6",
    "replace(bytes32,(bytes32,uint64,bytes,bytes),address)": "8ffa736b",
    "revoke(bytes32)": "b75c7dc6",
    "router()": "f887ea40",
    "transferOwnership(address)": "f2fde38b",
    "updateChainPrefix(uint256)": "8f0d7538",
    "updateRouter(address)": "c851cc32"
  },
  "id": 46
}