{
  "abi": [
    {
      "type": "constructor",
      "inputs": [],
      "stateMutability": "nonpayable"
    },
    {
      "type": "function",
      "name": "bulkUpdateSchemasIssuers",
      "inputs": [
        {
          "name": "schemaIdsToUpdate",
          "type": "bytes32[]",
          "internalType": "bytes32[]"
        },
        {
          "name": "issuer",
          "type": "address",
          "internalType": "address"
        }
      ],
      "outputs": [],
      "stateMutability": "nonpayable"
    },
    {
      "type": "function",
      "name": "createSchema",
      "inputs": [
        {
          "name": "name",
          "type": "string",
          "internalType": "string"
        },
        {
          "name": "description",
          "type": "string",
          "internalType": "string"
        },
        {
          "name": "context",
          "type": "string",
          "internalType": "string"
        },
        {
          "name": "schemaString",
          "type": "string",
          "internalType": "string"
        }
      ],
      "outputs": [],
      "stateMutability": "nonpayable"
    },
    {
      "type": "function",
      "name": "getIdFromSchemaString",
      "inputs": [
        {
          "name": "schema",
          "type": "string",
          "internalType": "string"
        }
      ],
      "outputs": [
        {
          "name": "",
          "type": "bytes32",
          "internalType": "bytes32"
        }
      ],
      "stateMutability": "pure"
    },
    {
      "type": "function",
      "name": "getSchema",
      "inputs": [
        {
          "name": "schemaId",
          "type": "bytes32",
          "internalType": "bytes32"
        }
      ],
      "outputs": [
        {
          "name": "",
          "type": "tuple",
          "internalType": "struct Schema",
          "components": [
            {
              "name": "name",
              "type": "string",
              "internalType": "string"
            },
            {
              "name": "description",
              "type": "string",
              "internalType": "string"
            },
            {
              "name": "context",
              "type": "string",
              "internalType": "string"
            },
            {
              "name": "schema",
              "type": "string",
              "internalType": "string"
            }
          ]
        }
      ],
      "stateMutability": "view"
    },
    {
      "type": "function",
      "name": "getSchemasNumber",
      "inputs": [],
      "outputs": [
        {
          "name": "",
          "type": "uint256",
          "internalType": "uint256"
        }
      ],
      "stateMutability": "view"
    },
    {
      "type": "function",
      "name": "initialize",
      "inputs": [],
      "outputs": [],
      "stateMutability": "nonpayable"
    },
    {
      "type": "function",
      "name": "isRegistered",
      "inputs": [
        {
          "name": "schemaId",
          "type": "bytes32",
          "internalType": "bytes32"
        }
      ],
      "outputs": [
        {
          "name": "",
          "type": "bool",
          "internalType": "bool"
        }
      ],
      "stateMutability": "view"
    },
    {
      "type": "function",
      "name": "owner",
      "inputs": [],
      "outputs": [
        {
          "name": "",
          "type": "address",
          "internalType": "address"
        }
      ],
      "stateMutability": "view"
    },
    {
      "type": "function",
      "name": "renounceOwnership",
      "inputs": [],
      "outputs": [],
      "stateMutability": "nonpayable"
    },
    {
      "type": "function",
      "name": "router",
      "inputs": [],
      "outputs": [
        {
          "name": "",
          "type": "address",
          "internalType": "contract IRouter"
        }
      ],
      "stateMutability": "view"
    },
    {
      "type": "function",
      "name": "schemaIds",
      "inputs": [
        {
          "name": "",
          "type": "uint256",
          "internalType": "uint256"
        }
      ],
      "outputs": [
        {
          "name": "",
          "type": "bytes32",
          "internalType": "bytes32"
        }
      ],
      "stateMutability": "view"
    },
    {
      "type": "function",
      "name": "transferOwnership",
      "inputs": [
        {
          "name": "newOwner",
          "type": "address",
          "internalType": "address"
        }
      ],
      "outputs": [],
      "stateMutability": "nonpayable"
    },
    {
      "type": "function",
      "name": "updateContext",
      "inputs": [
        {
          "name": "schemaId",
          "type": "bytes32",
          "internalType": "bytes32"
        },
        {
          "name": "context",
          "type": "string",
          "internalType": "string"
        }
      ],
      "outputs": [],
      "stateMutability": "nonpayable"
    },
    {
      "type": "function",
      "name": "updateRouter",
      "inputs": [
        {
          "name": "_router",
          "type": "address",
          "internalType": "address"
        }
      ],
      "outputs": [],
      "stateMutability": "nonpayable"
    },
    {
      "type": "function",
      "name": "updateSchemaIssuer",
      "inputs": [
        {
          "name": "schemaId",
          "type": "bytes32",
          "internalType": "bytes32"
        },
        {
          "name": "issuer",
          "type": "address",
          "internalType": "address"
        }
      ],
      "outputs": [],
      "stateMutability": "nonpayable"
    },
    {
      "type": "event",
      "name": "Initialized",
      "inputs": [
        {
          "name": "version",
          "type": "uint8",
          "indexed": false,
          "internalType": "uint8"
        }
      ],
      "anonymous": false
    },
    {
      "type": "event",
      "name": "OwnershipTransferred",
      "inputs": [
        {
          "name": "previousOwner",
          "type": "address",
          "indexed": true,
          "internalType": "address"
        },
        {
          "name": "newOwner",
          "type": "address",
          "indexed": true,
          "internalType": "address"
        }
      ],
      "anonymous": false
    },
    {
      "type": "event",
      "name": "RouterUpdated",
      "inputs": [
        {
          "name": "routerAddress",
          "type": "address",
          "indexed": false,
          "internalType": "address"
        }
      ],
      "anonymous": false
    },
    {
      "type": "event",
      "name": "SchemaContextUpdated",
      "inputs": [
        {
          "name": "id",
          "type": "bytes32",
          "indexed": true,
          "internalType": "bytes32"
        }
      ],
      "anonymous": false
    },
    {
      "type": "event",
      "name": "SchemaCreated",
      "inputs": [
        {
          "name": "id",
          "type": "bytes32",
          "indexed": true,
          "internalType": "bytes32"
        },
        {
          "name": "name",
          "type": "string",
          "indexed": false,
          "internalType": "string"
        },
        {
          "name": "description",
          "type": "string",
          "indexed": false,
          "internalType": "string"
        },
        {
          "name": "context",
          "type": "string",
          "indexed": false,
          "internalType": "string"
        },
        {
          "name": "schemaString",
          "type": "string",
          "indexed": false,
          "internalType": "string"
        }
      ],
      "anonymous": false
    },
    {
      "type": "event",
      "name": "SchemaIssuerUpdated",
      "inputs": [
        {
          "name": "schemaId",
          "type": "bytes32",
          "indexed": false,
          "internalType": "bytes32"
        },
        {
          "name": "schemaIssuerAddress",
          "type": "address",
          "indexed": false,
          "internalType": "address"
        }
      ],
      "anonymous": false
    },
    {
      "type": "error",
      "name": "IssuerInvalid",
      "inputs": []
    },
    {
      "type": "error",
      "name": "OnlyAllowlisted",
      "inputs": []
    },
    {
      "type": "error",
      "name": "OnlyAssignedIssuer",
      "inputs": []
    },
    {
      "type": "error",
      "name": "OnlyPortalRegistry",
      "inputs": []
    },
    {
      "type": "error",
      "name": "RouterInvalid",
      "inputs": []
    },
    {
      "type": "error",
      "name": "SchemaAlreadyExists",
      "inputs": []
    },
    {
      "type": "error",
      "name": "SchemaNameMissing",
      "inputs": []
    },
    {
      "type": "error",
      "name": "SchemaNotRegistered",
      "inputs": []
    },
    {
      "type": "error",
      "name": "SchemaStringMissing",
      "inputs": []
    }
  ],
  "bytecode": {
    "object": "0x608060405234801561001057600080fd5b5061001961001e565b6100dd565b600054610100900460ff161561008a5760405162461bcd60e51b815260206004820152602760248201527f496e697469616c697a61626c653a20636f6e747261637420697320696e697469604482015266616c697a696e6760c81b606482015260840160405180910390fd5b60005460ff908116146100db576000805460ff191660ff9081179091556040519081527f7f26b83ff96e1f2b6a682f133852f6798a09c465da95921460cefb38474024989060200160405180910390a15b565b6112f4806100ec6000396000f3fe608060405234801561001057600080fd5b50600436106100f55760003560e01c80638129fc1c11610097578063bfa7fb2911610066578063bfa7fb29146101ee578063c851cc3214610201578063f2fde38b14610214578063f887ea401461022757600080fd5b80638129fc1c146101995780638da5cb5b146101a1578063a2ea7c6e146101c6578063bad908d1146101e657600080fd5b80634b63bcf4116100d35780634b63bcf4146101585780634ba4bd2d1461016b578063715018a61461017e5780637ddf1ab31461018657600080fd5b806305d44b55146100fa5780630e500d741461012057806327258b2214610135575b600080fd5b61010d610108366004610cb7565b61023a565b6040519081526020015b60405180910390f35b61013361012e366004610d73565b61025b565b005b610148610143366004610cb7565b6104df565b6040519015158152602001610117565b610133610166366004610e35565b610505565b61010d610179366004610e65565b6105c0565b6101336105f0565b610133610194366004610ea2565b610604565b6101336106ac565b6033546001600160a01b03165b6040516001600160a01b039091168152602001610117565b6101d96101d4366004610cb7565b6107c3565b6040516101179190610f39565b60675461010d565b6101336101fc366004610fb7565b610a7b565b61013361020f36600461103d565b610abe565b61013361022236600461103d565b610b3b565b6065546101ae906001600160a01b031681565b6067818154811061024a57600080fd5b600091825260209091200154905081565b60655460408051635bed64bb60e11b8152905133926001600160a01b03169163b7dac9769160048083019260209291908290030181865afa1580156102a4573d6000803e3d6000fd5b505050506040513d601f19601f820116820180604052508101906102c89190611061565b6040516305a3b80960e01b81526001600160a01b03838116600483015291909116906305a3b80990602401602060405180830381865afa158015610310573d6000803e3d6000fd5b505050506040513d601f19601f82011682018060405250810190610334919061107e565b6103515760405163acf8a02d60e01b815260040160405180910390fd5b84516000036103735760405163e474746b60e01b815260040160405180910390fd5b815160000361039557604051635421bc3560e11b815260040160405180910390fd5b60006103a0836105c0565b90506103ab816104df565b156103c957604051631cfbd86560e21b815260040160405180910390fd5b604080516080810182528781526020808201889052818301879052606082018690526000848152606690915291909120815181906104079082611129565b506020820151600182019061041c9082611129565b50604082015160028201906104319082611129565b50606082015160038201906104469082611129565b505060678054600181019091557f9787eeb91fe3101235e4a76063c7023ecb40f923f97916639c598592fa30d6ae01829055506000818152606860205260409081902080546001600160a01b031916331790555181907f4c757208c931a5f2d7900aebd0ab4a238965c74ba1de8d2b54e234513e8a7d9e906104cf9089908990899089906111e9565b60405180910390a2505050505050565b600081815260666020526040812080548291906104fb906110a0565b9050119050919050565b61050d610bb1565b610516826104df565b61053357604051638cc004a960e01b815260040160405180910390fd5b6001600160a01b03811661055a57604051636c6b392560e01b815260040160405180910390fd5b60008281526068602090815260409182902080546001600160a01b0319166001600160a01b0385169081179091558251858152918201527f5ba55b033a912b7c09458d88cbc8278595cb68bf4178a2aea7a68c811ba3c96a910160405180910390a15050565b6000816040516020016105d39190611241565b604051602081830303815290604052805190602001209050919050565b6105f8610bb1565b6106026000610c0b565b565b61060d826104df565b61062a57604051638cc004a960e01b815260040160405180910390fd5b6000828152606860205260409020546001600160a01b031633146106615760405163e328c33160e01b815260040160405180910390fd5b600082815260666020526040902060020161067c8282611129565b5060405182907f2259f2b8a71fba4214a0830b6c2878525e5bf79911a536b7dab84270fb31947f90600090a25050565b600054610100900460ff16158080156106cc5750600054600160ff909116105b806106e65750303b1580156106e6575060005460ff166001145b61074e5760405162461bcd60e51b815260206004820152602e60248201527f496e697469616c697a61626c653a20636f6e747261637420697320616c72656160448201526d191e481a5b9a5d1a585b1a5e995960921b60648201526084015b60405180910390fd5b6000805460ff191660011790558015610771576000805461ff0019166101001790555b610779610c5d565b80156107c0576000805461ff0019169055604051600181527f7f26b83ff96e1f2b6a682f133852f6798a09c465da95921460cefb3847402498906020015b60405180910390a15b50565b6107ee6040518060800160405280606081526020016060815260200160608152602001606081525090565b6107f7826104df565b61081457604051638cc004a960e01b815260040160405180910390fd5b6000828152606660205260409081902081516080810190925280548290829061083c906110a0565b80601f0160208091040260200160405190810160405280929190818152602001828054610868906110a0565b80156108b55780601f1061088a576101008083540402835291602001916108b5565b820191906000526020600020905b81548152906001019060200180831161089857829003601f168201915b505050505081526020016001820180546108ce906110a0565b80601f01602080910402602001604051908101604052809291908181526020018280546108fa906110a0565b80156109475780601f1061091c57610100808354040283529160200191610947565b820191906000526020600020905b81548152906001019060200180831161092a57829003601f168201915b50505050508152602001600282018054610960906110a0565b80601f016020809104026020016040519081016040528092919081815260200182805461098c906110a0565b80156109d95780601f106109ae576101008083540402835291602001916109d9565b820191906000526020600020905b8154815290600101906020018083116109bc57829003601f168201915b505050505081526020016003820180546109f2906110a0565b80601f0160208091040260200160405190810160405280929190818152602001828054610a1e906110a0565b8015610a6b5780601f10610a4057610100808354040283529160200191610a6b565b820191906000526020600020905b815481529060010190602001808311610a4e57829003601f168201915b5050505050815250509050919050565b610a83610bb1565b60005b82811015610ab857610ab0848483818110610aa357610aa361125d565b9050602002013583610505565b600101610a86565b50505050565b610ac6610bb1565b6001600160a01b038116610aed576040516324a2034760e11b815260040160405180910390fd5b606580546001600160a01b0319166001600160a01b0383169081179091556040519081527f7aed1d3e8155a07ccf395e44ea3109a0e2d6c9b29bbbe9f142d9790596f4dc80906020016107b7565b610b43610bb1565b6001600160a01b038116610ba85760405162461bcd60e51b815260206004820152602660248201527f4f776e61626c653a206e6577206f776e657220697320746865207a65726f206160448201526564647265737360d01b6064820152608401610745565b6107c081610c0b565b6033546001600160a01b031633146106025760405162461bcd60e51b815260206004820181905260248201527f4f776e61626c653a2063616c6c6572206973206e6f7420746865206f776e65726044820152606401610745565b603380546001600160a01b038381166001600160a01b0319831681179093556040519116919082907f8be0079c531659141344cd1fd0a4f28419497f9722a3daafe3b4186f6b6457e090600090a35050565b600054610100900460ff16610c845760405162461bcd60e51b815260040161074590611273565b610602600054610100900460ff16610cae5760405162461bcd60e51b815260040161074590611273565b61060233610c0b565b600060208284031215610cc957600080fd5b5035919050565b634e487b7160e01b600052604160045260246000fd5b600082601f830112610cf757600080fd5b813567ffffffffffffffff80821115610d1257610d12610cd0565b604051601f8301601f19908116603f01168101908282118183101715610d3a57610d3a610cd0565b81604052838152866020858801011115610d5357600080fd5b836020870160208301376000602085830101528094505050505092915050565b60008060008060808587031215610d8957600080fd5b843567ffffffffffffffff80821115610da157600080fd5b610dad88838901610ce6565b95506020870135915080821115610dc357600080fd5b610dcf88838901610ce6565b94506040870135915080821115610de557600080fd5b610df188838901610ce6565b93506060870135915080821115610e0757600080fd5b50610e1487828801610ce6565b91505092959194509250565b6001600160a01b03811681146107c057600080fd5b60008060408385031215610e4857600080fd5b823591506020830135610e5a81610e20565b809150509250929050565b600060208284031215610e7757600080fd5b813567ffffffffffffffff811115610e8e57600080fd5b610e9a84828501610ce6565b949350505050565b60008060408385031215610eb557600080fd5b82359150602083013567ffffffffffffffff811115610ed357600080fd5b610edf85828601610ce6565b9150509250929050565b60005b83811015610f04578181015183820152602001610eec565b50506000910152565b60008151808452610f25816020860160208601610ee9565b601f01601f19169290920160200192915050565b602081526000825160806020840152610f5560a0840182610f0d565b90506020840151601f1980858403016040860152610f738383610f0d565b92506040860151915080858403016060860152610f908383610f0d565b9250606086015191508085840301608086015250610fae8282610f0d565b95945050505050565b600080600060408486031215610fcc57600080fd5b833567ffffffffffffffff80821115610fe457600080fd5b818601915086601f830112610ff857600080fd5b81358181111561100757600080fd5b8760208260051b850101111561101c57600080fd5b6020928301955093505084013561103281610e20565b809150509250925092565b60006020828403121561104f57600080fd5b813561105a81610e20565b9392505050565b60006020828403121561107357600080fd5b815161105a81610e20565b60006020828403121561109057600080fd5b8151801515811461105a57600080fd5b600181811c908216806110b457607f821691505b6020821081036110d457634e487b7160e01b600052602260045260246000fd5b50919050565b601f82111561112457600081815260208120601f850160051c810160208610156111015750805b601f850160051c820191505b818110156111205782815560010161110d565b5050505b505050565b815167ffffffffffffffff81111561114357611143610cd0565b6111578161115184546110a0565b846110da565b602080601f83116001811461118c57600084156111745750858301515b600019600386901b1c1916600185901b178555611120565b600085815260208120601f198616915b828110156111bb5788860151825594840194600190910190840161119c565b50858210156111d95787850151600019600388901b60f8161c191681555b5050505050600190811b01905550565b6080815260006111fc6080830187610f0d565b828103602084015261120e8187610f0d565b905082810360408401526112228186610f0d565b905082810360608401526112368185610f0d565b979650505050505050565b60008251611253818460208701610ee9565b9190910192915050565b634e487b7160e01b600052603260045260246000fd5b6020808252602b908201527f496e697469616c697a61626c653a20636f6e7472616374206973206e6f74206960408201526a6e697469616c697a696e6760a81b60608201526080019056fea264697066735822122065014c03a916f99c76132f377210802226ffebd8524fcacb832970bdfa8cadcd64736f6c63430008150033",
    "linkReferences": {}
  },
  "methodIdentifiers": {
    "bulkUpdateSchemasIssuers(bytes32[],address)": "bfa7fb29",
    "createSchema(string,string,string,string)": "0e500d74",
    "getIdFromSchemaString(string)": "4ba4bd2d",
    "getSchema(bytes32)": "a2ea7c6e",
    "getSchemasNumber()": "bad908d1",
    "initialize()": "8129fc1c",
    "isRegistered(bytes32)": "27258b22",
    "owner()": "8da5cb5b",
    "renounceOwnership()": "715018a6",
    "router()": "f887ea40",
    "schemaIds(uint256)": "05d44b55",
    "transferOwnership(address)": "f2fde38b",
    "updateContext(bytes32,string)": "7ddf1ab3",
    "updateRouter(address)": "c851cc32",
    "updateSchemaIssuer(bytes32,address)": "4b63bcf4"
  },
  "id": 52
}